:100000000C9480040C94C7040C94C7040C94C7048B
:100010000C94C7040C94C7040C94C7040C94C70434
:100020000C94C7040C94C7040C947C210C945022AB
:100030000C94D31C0C94C7040C94C7040C94C704F0
:100040000C94C7040C94C7040C94C7040C94C70404
:100050000C94C7040C942A1D0C94C7040C94C70478
:100060000C94C7040C94C7040C94C7040C94C704E4
:100070000C94C7040C94C7040C94C7040C94C704D4
:100080000C94C7040C94C7040C94C7040C94C704C4
:100090000C94C7040C94C7040C94C7040C94C704B4
:1000A0000C94C7040C94C7040C94C70441444A0A36
:1000B000004C4F5745520A0052414953450A0042ED
:1000C0004153450A00004C41594552000A0A002993
:1000D0000014001A0008001500170000001C00188A
:1000E000000C00120013002A002B00040016000769
:1000F0000009000A0000000B000D000E000F003385
:10010000003400E1001D001B00060019000500007E
:1001100000110010003600370038002800E000E32E
:1001200000E200025128002C00A8002C00E500018C
:1001300051E600E700E40035001E001F002000210A
:100140000022000000230024002500260027004C88
:100150000039002D002E002F00300031000000007B
:10016000005000510052004F00310001000000001B
:10017000000000000000000000000000000000007F
:1001800000000000000100010001000351280000F0
:1001900000AE000000E50000000100010001003A8F
:1001A000003B003C003D003E003F0000004000419D
:1001B0000042004300440045000000000000000031
:1001C000000000000000000000000000002F0030D0
:1001D000000000000000000000000000000000001F
:1001E000000000000000000000000000000100010D
:1001F000000100000028000000A8000000E5000346
:10020000510100010001000000000000000000009A
:1002100000000000000000000000000000000000DE
:100220000000000000000000000000390000005342
:100230000047000000000000000000000000000077
:1002400000000000000000000000000000000000AE
:10025000000000000001000100010000000000009B
:1002600000A80000000000000001000100010000E3
:10027000AE00AF00DA0281FFD9F1DB20A4A62EAFD9
:1002800000A0C000A1C800AED580A81FD300408D3B
:1002900014200007087F0807003E5B4F5B3E003ECE
:1002A0006B4F6B3E001C3E7C3E1C00183C7E3C1895
:1002B000001C577D571C001C5E7F5E1C0000183C14
:1002C000180000FFE7C3E7FF00001824180000FF34
:1002D000E7DBE7FF0030483A060E00262979292699
:1002E00000407F05050700407F05253F005A3CE799
:1002F0003C5A007F3E1C1C0800081C1C3E7F00145A
:10030000227F2214005F5F005F5F0006097F017F8C
:1003100000006689956A0060606060600094A2FFDA
:10032000A2940008047E04080010207E201000081B
:10033000082A1C0800081C2A0808001E10101010AB
:10034000000C1E0C1E0C0030383E383000060E3EED
:100350000E060000000000000000005F000000002A
:100360000700070000147F147F1400242A7F2A123C
:100370000023130864620036495620500000080725
:10038000030000001C224100000041221C00002A42
:100390001C7F1C2A0008083E0808000080703000FE
:1003A000000808080808000000606000002010082D
:1003B0000402003E5149453E0000427F4000007269
:1003C00049494946002141494D33001814127F1014
:1003D000002745454539003C4A4949310041211132
:1003E000090700364949493600464949291E000097
:1003F00000140000000040340000000008142241F6
:1004000000141414141400004122140800020159AD
:100410000906003E415D594E007C1211127C007F9E
:1004200049494936003E41414122007F4141413E18
:10043000007F49494941007F09090901003E4141C6
:100440005173007F0808087F0000417F41000020B1
:1004500040413F01007F08142241007F404040405E
:10046000007F021C027F007F0408107F003E414194
:10047000413E007F09090906003E4151215E007F8F
:10048000091929460026494949320003017F010321
:10049000003F4040403F001F2040201F003F4038A9
:1004A000403F0063140814630003047804030061F0
:1004B00059494D4300007F4141410002040810208A
:1004C00000004141417F000402010204004040401D
:1004D0004040000003070800002054547840007F8B
:1004E0002844443800384444442800384444287F91
:1004F0000038545454180000087E09020018A4A4BF
:100500009C78007F080404780000447D40000020AF
:1005100040403D00007F102844000000417F400023
:10052000007C04780478007C080404780038444493
:10053000443800FC182424180018242418FC007CDB
:10054000080404080048545454240004043F44247C
:10055000003C4040207C001C2040201C003C4030DF
:10056000403C004428102844004C9090907C00446B
:1005700064544C440000083641000000007700003D
:10058000000041360800000201020402003C26235C
:10059000263C00000000000000404040F0F8F8FF5A
:1005A00038FFF8F83FF8F8FF38FFF8F8F04040401F
:1005B00000000000000080C0C0C0800000C0C080FB
:1005C00000000080C0C000C0C0000080C0C00000AB
:1005D000000000C0C0C0C0C000C0C00000000000DB
:1005E000000000000000000000000000000000000B
:1005F00000000000000000000000000000000000FB
:1006000000000000000000000000000000000000EA
:100610000000C0F0F8FC3E1E06010000007F4141D2
:10062000417F007F4141417F000080C0E07E5B4F01
:100630005BFEC00000C000DCD7DEDEDED7DC00C021
:1006400000000000000000000000000000000000AA
:10065000000000000000000000494949FFFFFFFFC3
:10066000E0DFBFBF00BFBFDFE0FFFFFFFF49494939
:1006700000000000001F3F6060E0BF1F007F7F0799
:100680001E381E077F7F007F7F0E1F3B71600000BA
:100690000000007F7F0C0C0C007E7E007F7E030339
:1006A000007F7E03037E7E03037F7E000F3E703C4F
:1006B000063C703E0F00327B49493F7E007F7E033F
:1006C00003001E3F69696F26000000000000000063
:1006D0000000030F1F3F3C7870600000007F414125
:1006E000417F007F4141417F00307B7F7830202077
:1006F00030787F3B0003000F7F0F0F0F7F0F000349
:1007000000000000000000000000000000000000E9
:10071000000000000000000000010101070F0F7F32
:100720000F7F0F0F7E0F0F7F0F7F0F0F070101014C
:1007300000000000000000000000010100000000B7
:1007400000000000000000000000000000000000A9
:100750000000000000000000000000000000000099
:100760000000000000000000000000000000000089
:100770000000000000000000000000000000000079
:100780000000000000000000000000000000000069
:100790000000000000000000000000000000000059
:1007A0000000000000000000000000000000000049
:1007B0000000000000000000000000000000000039
:1007C0000000000000000000000000000000000029
:1007D0000000001403720069007300740072006569
:1007E00000740074006F000000160366007200754C
:1007F000006900740079006B00650065006200000C
:10080000000403090409023B00020100A0FA0904E4
:100810000000010301010009211101000122400033
:100820000705810308000A09040100010300000014
:10083000092111010001226D000705820320000A31
:1008400012011001000000086B66737201000102C2
:10085000000105010980A101850319012AB70015CE
:100860000126B700950175108100C0050C0901A192
:1008700001850419012AA002150126A0029501751F
:10088000108100C005010906A1018505050719E0D1
:1008900029E7150025019508750181020507190052
:1008A00029EF1500250195F0750181020508190150
:1008B0002905950575019102950175039101C00502
:1008C000010906A101050719E029E7150025019591
:1008D0000875018102950175088101050719002934
:1008E000FF150026FF00950675088100050819010F
:1008F0002905950575019102950175039101C000C7
:1009000011241FBECFEFDAE0DEBFCDBF04B603FE79
:1009100027C08091CA049091CB04A091CC04B091DF
:10092000CD048730904BA740B04BD1F41092CA044D
:100930001092CB041092CC041092CD0414BE84B754
:10094000877F84BF0FB6F894A89580916000886176
:1009500080936000109260000FBEE0E0F8E309951C
:1009600011E0A0E0B1E0ECE7F9E402C005900D92DF
:10097000A03AB107D9F724E0A0EAB1E001C01D9286
:10098000AA3CB207E1F70E94B81E0C9494240C9480
:1009900000001F93CF93DF93182FD62F0E947F095B
:1009A000C82F882341F0111106C0DD2349F08AEADF
:1009B0000E944712CD2F8C2FDF91CF911F91089568
:1009C00089EA0E944712F7CF83E0089560E08CEC3B
:1009D00090E00E94470B60E086EC90E00E94590B8B
:1009E00060E085EC90E00E94590B6091500270919C
:1009F000510280915202909153020E94D1058130A0
:100A000061F0882329F0823061F0833071F008951D
:100A100060E08FEB90E00C94470B60E088EB90E097
:100A2000FACF60E081EB90E0F6CF60E08CEA90E0F6
:100A3000F2CF81E0089581E008950C941B0508959C
:100A40000C941F051F93CF93DF9300D000D00F921B
:100A5000CDB7DEB749835A836B833091F401898126
:100A60009A8131111DC06623B9F02223A9F00E949A
:100A7000A319182F682F89819A810E944F196981C3
:100A80007A81812F0F900F900F900F900F90DF9130
:100A9000CF911F910C9431060E947B19182FEFCF34
:100AA0000E94A31969817A81EDCFFC01262F408134
:100AB00051816281738184810C942205CF93DF93ED
:100AC000EC0160E00E945505BE01DF91CF910C94CE
:100AD00020050E9434080C9459080C945C08089571
:100AE0000E94B9140E946F052FEF84E39CE021500F
:100AF00080409040E1F700C000000C944E1D0F9321
:100B00001F93CF93DF938C0161E00E945505EC01A8
:100B1000B8010E941D058823A9F1B801CE010E94E9
:100B20002D0D882379F1B801CE010E947F0D882315
:100B300049F1B801CE010E94A20E882319F1F801F3
:100B40008281882361F0CB35FDE5DF0721F170F468
:100B5000C115ECE5DE07A1F0CF3DDC45C9F0C801C9
:100B6000DF91CF911F910F910C941905CC358DE534
:100B7000D807A1F0CD35DD4591F70E944A1AEFCF95
:100B80000E94700580E0DF91CF911F910F91089531
:100B90000E94BD1BF7CF0E94531AE1CF0E94561A44
:100BA000DECFCF92DF92EF92FF926C01EE24FF2412
:100BB00020E0C114D104E104F10419F0C701B60129
:100BC00020E1C72ED82EE92EFF24C114D104E10460
:100BD000F10419F0285FC701B6016B017C0154E0F4
:100BE000F694E794D794C7945A95D1F7C114D104D9
:100BF000E104F10419F02C5FC701B6016B017C011F
:100C000042E0F694E794D794C7944A95D1F7C1147B
:100C1000D104E104F10419F02E5FC701B6019695E5
:100C2000879577956795672B682B692B09F02F5F60
:100C3000822FFF90EF90DF90CF90089508950C944D
:100C40001E0681E008950C942106CF93C82F0E94C0
:100C50001F068C2FCF910C94230690E080E008951E
:100C60000895972F70E02DE0929F600D711D112463
:100C7000FB0194E3899FE00DF11D1124EE0FFF1F8E
:100C8000E153FF4F859194910895FC01EE0FFF1FF2
:100C9000E159FD4F859194910895CF93DF930E9480
:100CA00031060E945907EC01811520E5920708F0F2
:100CB00041C0811530E4930708F0B4C0803E91052F
:100CC00018F5803C910508F09DC0883A910570F4B4
:100CD000853A910508F08EC081309105F9F00097B2
:100CE000E9F00497D8F4D0E0C0E018C08F3B91053C
:100CF000D0F7C85AD0E0CC0FDD1FCC5EDE4F099094
:100D0000D881C02DD4640AC08115904258F4C11511
:100D100081E0D80718F4C83ED10528F7CE01DF914D
:100D2000CF910895C11590E3D90708F071C0CE01A5
:100D30009F706AC0811525E5920758F5811534E545
:100D4000930708F09EC0811542E5940750F4C11541
:100D500081E5D80708F469C0DC2FCC27C16FD06AC1
:100D6000DDCF982F969596959E0123703327C11558
:100D7000D34508F077C0C1E0D0E002C0CC0FDD1F42
:100D80002A95E2F720E2929FC0011124C82BD92BAB
:100D900067C0C11589E5D807A8F4C11598E5D9073A
:100DA00008F074C0C11526E5D20708F09CCF8C2F3F
:100DB0000E94F007C82FD0E0DC2FCC27CC27DF71B2
:100DC000D062ACCFC1153AE5D30708F464C0CE01B8
:100DD00090568115904208F086CF8D2F8F710E941A
:100DE000F00790E0982F882788279F719C012C2B73
:100DF000E901E6CFC55AD0E0CE5BDE4FC881D0E036
:100E0000D0648CCF805C91090E944506EC0186CFAE
:100E1000CE019927D3FF03C0EC01D86C7FCFEC0142
:100E2000D06C7CCFDF70D06A79CFCE01E4E09695AC
:100E30008795EA95E1F783702C2F269526952370E8
:100E400090E2299F90011124382B8C2F8370C1E0F0
:100E5000D0E002C0CC0FDD1F8A95E2F7C22BD32B66
:100E6000DC685CCFC1E0D0E002C0CC0FDD1F2A956A
:100E7000E2F730E2939FC0011124C82BD92BDA6826
:100E80004DCFD82FCC27C46FD06A48CFDC2FCC27CA
:100E9000C06FD06A43CF8C2F8F700E94F00734E070
:100EA000D695C7953A95E1F7CF709C2FEC01D069A4
:100EB00035CF82389105B1F1B0F48133910509F451
:100EC00075C048F48932910509F469C08A329105E8
:100ED00009F473C008958533910509F459C0893325
:100EE000910501F10895833E9105A9F138F4803E02
:100EF0009105F9F0823E910549F10895863E9105EC
:100F0000A9F1873E9105C9F1843E910519F520911B
:100F1000A20221FF1FC08091A10284FD14C087EEB0
:100F200090E008952091A1022370A1F080EE90E05E
:100F300008952091A10220FD47C03091A20230FF08
:100F400009C024FF44C090E080E004C02091A102C9
:100F500022FDF7CF08952091A10222FD3BC03091E0
:100F6000A20230FDE3CF24FFF5CFEDCF2091A10207
:100F700023FFF0CF24FDE7CFD2CF2091A10223FDA4
:100F80002CC03091A20231FFEECF84EE90E00895A4
:100F90002091A10225FFDECF89E290E00895209103
:100FA000A10225FFD7CF85E390E008952091A1020B
:100FB00026FFD0CF8AE290E008952091A10226FF7B
:100FC000C9CF81E390E0089589E390E0089583EE2E
:100FD00090E0089582EE90E0089586EE90E0089506
:100FE0009091A10292FF06C0282F28712830F9F4B1
:100FF000877F846093FF06C0282F28712831F1F481
:10100000877E84612091A20220FF06C0382F3871AC
:101010003830D9F4877F816021FF06C0282F2871DE
:101020002831D1F4877E816194FD877E0895282F31
:1010300024712430F9F68B7F8860DCCF282F24714F
:10104000243101F78B7E8861DDCF382F317131304B
:1010500019F78E7F8860E0CF282F2171213121F789
:101060008E7E8861E1CF08950E94181B811102C015
:101070000E94BD1B0E94231B80937D020E942B1B9C
:101080009093A2028093A1020E9433080E94271B22
:10109000682F70E090E080E00E945118609150024B
:1010A0007091510280915202909153020C948B18CE
:1010B00008950C94580808950C945B08E82FF0E00C
:1010C000EE0FFF1FE555FD4F808191810895089532
:1010D00080EA8A95F1F7089500C008950C94680895
:1010E000F894E82FE295EF70F0E031A1282F2F70EF
:1010F00081E090E001C0880F2A95EAF7982F90953B
:10110000932391A392A1892B82A378940895CF93DE
:10111000DF9381E30E94700882E30E94700883E3FA
:101120000E94700883E90E947008C5E4D1E08991AB
:101130000E94700881E0C235D807C9F71092A40256
:101140001092A3021092AC021092AB021092A6026F
:101150001092A5021092AE021092AD021092A80257
:101160001092A7021092B0021092AF021092AA023F
:101170001092A9021092B2021092B10284E00E9471
:101180004509DF91CF910C946905AF92BF92DF9230
:10119000EF92FF920F931F93CF93DF93C2E5D1E0BD
:1011A00003EA12E0D12CEE24E394F12C8991F89417
:1011B000E82FE295EF70F0E021A18F70A70102C047
:1011C000440F551F8A95E2F7CA01922F982B91A3DD
:1011D00092A18095892382A378940E946C08E5E40B
:1011E000F1E030E020E0B12CA12C4191A42FA29598
:1011F000AF70B0E090968C9190E04F7002C09595E2
:1012000087954A95E2F780FD3BC0C701022E02C0D8
:10121000880F991F0A94E2F7A82AB92A2F5F3F4F37
:101220002D30310511F7FE01319780810E94700841
:101230000E946E08F80180819181A816B90619F103
:10124000B182A08281E0D82A0E5F1F4FF1E0C6353F
:10125000DF0709F0ABCF2D2D44E06BEA72E083EAA3
:1012600092E00E9446090E946D058D2DDF91CF917D
:101270001F910F91FF90EF90DF90BF90AF90089576
:1012800090E080E0C9CF80E0DECF0895FF920F9319
:101290001F93CF93DF93F82E092F162FD72FC42F2C
:1012A000222349F081E08093A4010E94031D9093C2
:1012B000A3018093A2018091A4018823A1F08091D1
:1012C000A2019091A3010E941B1D069760F0EF2DD3
:1012D000F02FA12FBD2F90E080E0D0E08C179D076C
:1012E00044F01092A401DF91CF911F910F91FF90D4
:1012F0000895219131912D933D930196EFCF81E097
:10130000089554985C9A56985E9A89B18295817036
:101310004E9905C090E0892B8093A701089592E033
:10132000FACFE091A701EE0FEE0FE093A70149B1CC
:1013300044FB882780F949B146FB222720F946FF64
:1013400002C022E030E0822BE82BE093A701EF708F
:10135000F0E0EA5AFE4F80819091A601890F8093B8
:10136000A60120E0843054F08091A5018F5F809326
:10137000A50160E080E00E94C90421E08091A601FF
:101380008D3F54F48091A50181508093A50161E0C7
:1013900080E00E94C90421E08091A601082E000C83
:1013A000990B64E070E00E9422248093A601822FB2
:1013B0000895CF92DF92EF92FF920F931F93CF93F6
:1013C000DF936C017B0164E670E088E70E94D20E37
:1013D000EC0197FD12C010E000E0F601E00FF11FF4
:1013E000849164E670E00E942E0FEC01892B29F4B1
:1013F0000F5F1F4F0E151F0581F70E94B10FCE0121
:10140000DF91CF911F910F91FF90EF90DF90CF90E0
:101410000895E3EBF2E080E092E0DF019C011D9291
:1014200021503040E1F7F093B804E093B7048FEF18
:101430009FEF9093D4018093D30108950E94E40418
:101440008093CF0180FD0FC080E88093CE010E9481
:10145000CC0E6DE070E086E892E00E94D909892BFD
:1014600021F080E0089580E2F0CF8091CF0163E029
:1014700070E081FD26C083E892E00E94D909892BA3
:1014800081F76DE070E083E792E00E94D909892B33
:1014900041F70E940F1D605A75418F4F9F4F609317
:1014A000B3047093B4048093B5049093B6040E947F
:1014B000090A81E08093D2018093D1011092D0017A
:1014C000089580E892E0D9CF2091CE0136E0839F45
:1014D000C0011124629F800D911D1124811522E00D
:1014E000920714F090E080E08D549D4F9093B804E3
:1014F0008093B70408952091B7043091B8042D5A11
:1015000032404091CE01642F70E0C9010E940E2448
:10151000481B463010F4240F311D211582E0380796
:1015200010F030E020E02D543D4F3093B80420936C
:10153000B70408951F93CF93DF93162F8A3031F4A9
:1015400081E0DF91CF911F910C94140B8D3011F439
:1015500080E0F7CFC091B704D091B80496E0FE01C7
:10156000A8EAB1E001900D929A95E1F7803EC8F0AB
:1015700086E0FE0111928A95E9F711111EC0C09113
:10158000B704D091B80446E050E0BE0188EA91E08B
:101590000E944524892BF9F4DF91CF911F910C947F
:1015A0007B0AF6E08F9FB00111246D567D4F46E017
:1015B00050E0CE010E943C24E0CFE091B704F091CE
:1015C000B8049F012A5F3F4F2E173F07C1F2808169
:1015D00080958193F9CFC35BD240CE0125E09695EB
:1015E00087952A95E1F721E030E0A90102C0440F78
:1015F000551F8A95E2F7CA014091D3015091D40159
:10160000842B952B259645E0D695C7954A95E1F70D
:1016100002C0220F331FCA95E2F7822B932B9093BF
:10162000D4018093D301B8CFCF93382FE091B70482
:10163000F091B804E35BF2402091CE01622F70E09C
:10164000CF010E940E24281B822F332369F066E00D
:101650000E940224C82FC15010F4CF91089560E079
:1016600080E20E949A0AF7CF9F01280F311D2115B1
:10167000324018F080E0F0E0E0E08E0F9F2F911DE7
:101680008D549D4F9093B8048093B704E6CF1F9379
:10169000CF93DF93EC01162FFE018491811104C0DA
:1016A000DF91CF911F910895612F0E949A0A219690
:1016B000F3CF0E94470B81E00C94140B8091D20170
:1016C000811103C08091D10108950E940F1D605ABD
:1016D00075418F4F9F4F6093B3047093B404809310
:1016E000B5049093B6048091D1018111EBCF62E0F3
:1016F00070E081E792E00E94D909892B19F781E017
:101700008093D101DFCF2F923F925F926F927F92B1
:101710008F929F92AF92BF92CF92DF92EF92FF9201
:101720000F931F93CF93DF938091D201882369F0A9
:101730002091D3013091D4012115310531F08091F0
:10174000D00161E070E0882399F0DF91CF911F9183
:101750000F91FF90EF90DF90CF90BF90AF909F9050
:101760008F907F906F905F903F902F9008958F5F44
:10177000082F10E01B01082E02C0220C331C0A9413
:10178000E2F7A90142215321452B89F39091CF0122
:1017900090FD44C08295880F807680930201980165
:1017A000369527953695279520930501815E809380
:1017B00003011092060124E630E047E050E060E0CB
:1017C00071E088E70E945D0F892B09F0BECFA80168
:1017D00025E0440F551F2A95E1F78091CF0180FD48
:1017E0002BC04D545D4F04E610E020E230E060E491
:1017F00088E70E94840F892B09F0A7CF0E945E0B17
:10180000E101C095D0958091D3019091D401C82376
:10181000D923D093D401C093D30197CF880F880FD9
:10182000880F8093020110920501895F8093030164
:1018300083E080930601BFCFEEEAF1E080E2DF01B2
:101840001D928A95E9F7AAE6B1E006E611E08EE678
:10185000C82E81E0D82E97E0592E772473948D916D
:10186000E80129918E01240F352F311D2D543D4F54
:10187000E82FF0E0E255FE4F90E080E0652C681A1A
:10188000872C082E01C0880C0A94EAF77901A12C54
:10189000E701B9907E01B820662D6A196770962E0F
:1018A000062E000C770BDB2D01C0DD0F9A94EAF7B2
:1018B0007195619571096770772701C0B6946A9533
:1018C000EAF7BD2A6081962E9B289082A39468E057
:1018D000A612DECF019631968830910579F6CA16A8
:1018E000DB0609F0BCCF04E610E020E230E04EEA6F
:1018F00051E07DCF8091D1019091D201911103C02F
:1019000091E089270895882369F062E070E08FE60E
:1019100092E00E94D909892B19F08091D101089594
:101920001092D1018091D101EBCF0F931F93809141
:10193000D201882319F160E080E00E94640A0E94CD
:10194000E6040E94830B8091D1018823B9F00E94A4
:101950000F1D0091B3041091B4042091B50430918F
:10196000B604601B710B820B930B6F3F7F4F8F4F41
:101970009F4720F41F910F910C947A0C1F910F91A7
:1019800008950F931F93CF93DF93C42FD22FFC01A1
:1019900082818823C9F04093D7010E94031D909350
:1019A000D6018093D50180E28C0F883008F050C0BA
:1019B000C77081E001C0880FCA95EAF7DF91CF9127
:1019C0001F910F910C944F121091D701141335C031
:1019D0008091D5019091D6010E941B1D883C9105F4
:1019E00060F5C0E2CD0F1D17B9F080E2810F88309D
:1019F00040F4177081E001C0880F1A95EAF70E9441
:101A00005612C83048F481E09D2F977001C0880FAE
:101A10009A95EAF70E944F12802F0E944712C83011
:101A2000B8F4D77081E001C0880FDA95EAF7DF914A
:101A3000CF911F910F910C94561280E28C0F883039
:101A400038F4C77081E001C0880FCA95EAF7EFCF7C
:101A5000DF91CF911F910F9108950F939C01CB01BE
:101A6000243F4CE5340759F1A8F4293DFCE53F0734
:101A700001F12A3D4CE53407D1F1283D3C4591F474
:101A800006E221EE41EE68ED7CE50E94C10C80E0AB
:101A90000F910895263FFCE53F07E9F0B0F0273F9E
:101AA0003C45F9F0FC018281882339F11092D7017D
:101AB000EFCF07E225EE45EE69ED7CE5E6CF06E2E5
:101AC00021EE40EE64EF7CE5E0CF07E225EE44EE48
:101AD00065EF7CE5DACF06E221EE42EE66EF7CE5CB
:101AE000D4CF07E225EE46EE67EF7CE5CECF08E2E5
:101AF00021E045EE6AED7CE5C8CF81E0C9CFCF9308
:101B0000DF93EC01FB018281882309F419C1C23003
:101B1000FCE5DF07C0F1C6319CE5D90730F09E0136
:101B20002B5F3C452930310570F50E942B1B9093AB
:101B3000A2028093A102C031ECE5DE0709F4CFC018
:101B400008F05BC0C8308CE5D80709F4B6C088F54A
:101B5000C430ECE5DE0709F4A8C0C0F4C2308CE55F
:101B6000D80709F49CC08091A1028260C330DC4593
:101B700009F498C08091A1029091A2020E94391BA1
:101B80000E94B91480E0DF91CF9108958091A10265
:101B90008061C630ECE5DE0709F484C08091A102C3
:101BA0008860C730DC4508F47DC08091A102806266
:101BB00079C0CC308CE5D80709F489C070F48091E5
:101BC000A1028C60CA30ECE5DE0709F46BC008F4B2
:101BD00078C08091A1028E7F65C0CE308CE5D80799
:101BE00009F479C08091A1028B7FCF30DC4508F4E5
:101BF00059C08091A1028F7E55C0CC3FECE5DE0735
:101C000009F457C030F5C3318CE5D80709F46FC02B
:101C100078F4C131ECE5DE0709F465C0C231DC457A
:101C200009F0A8CF0E94B9148091A1028F773AC021
:101C3000C5318CE5D80709F462C008F476C08091FC
:101C4000A2028160CB3FDC4509F094CF8093A202D1
:101C500091CFC115FDE5DF0709F44DC088F48091EF
:101C6000A2028D7FCE3F9CE5D90781F38091A2022D
:101C70008E7FCF3FDC4550F38091A2028360E6CF98
:101C8000C230FDE5DF0709F459C008F444C080E024
:101C9000C330DD4509F06ECF0E94BF1B6BCF809132
:101CA000A10281608093A10265CF8091A10284602E
:101CB000F9CF8091A2028260C9CF8091A102806495
:101CC000F1CF0E94B9148091A1028068EBCF80917E
:101CD000A1028D7FE7CF8091A102877FE3CF809122
:101CE000A1028F7DDFCF8091A1028F7BDBCF80911E
:101CF000A102837FD7CF8091A2028C7FA7CF809152
:101D0000A10282FB992790F921E0922790FB82F9AA
:101D100090FB83F9C7CF8091A202982F9095917084
:101D20008E7F892B90FB81F991CF0E94B9149091FD
:101D3000A102892F97FB87F98058B4CF81E0ACCFFF
:101D400081E021CFCF93DF93EB0186319C4511F5E4
:101D50000E94591A9A81992399F08A7A91E009F49C
:101D600090E09093D801811109C089E20E94131A72
:101D70000E94A91A80E0DF91CF91089585E3F6CF04
:101D80008091D801811104C089E20E941A1AF0CF13
:101D900085E3FBCF81E0EFCF1092B9008CE0809318
:101DA000B8000895EF92FF920F931F93CF93DF93A4
:101DB000182FEB011092BC0084EA8093BC000E94B3
:101DC000031D7C018091BC0087FF27C08091B90072
:101DD000887F883029F08091B900887F8031D9F5DB
:101DE0001093BB0084E88093BC000E94031D8C010B
:101DF0008091BC0087FF24C02091B900287F90E02B
:101E000080E02831B1F081E090E0203411F490E0DE
:101E100080E09195819591090CC0CF3FDC0791F24C
:101E20000E94031D8E199F098C179D0758F28EEF93
:101E30009FEFDF91CF911F910F91FF90EF90089549
:101E4000CF3FDC07A9F20E94031D801B910B8C176A
:101E50009D0770F2ECCF8FEF9FEFEBCF0F931F93A7
:101E6000CF93DF93EB018093BB0084E88093BC00A9
:101E70000E94031D8C018091BC0087FF11C020913E
:101E8000B900287F81E090E0283211F490E080E0F2
:101E9000919581959109DF91CF911F910F910895AF
:101EA000CF3FDC0741F30E94031D801B910B8C1771
:101EB0009D0708F38EEF9FEFEECFCF92DF92EF9268
:101EC000FF920F931F93CF93DF936B018A017901E8
:101ED000B9010E94D20EE6010C0D1D1DC017D107DD
:101EE00061F424E92093BC00DF91CF911F910F9101
:101EF000FF90EF90DF90CF90089597FDF2CFB7015C
:101F000089910E942E0FEACFCF92DF92EF92FF923B
:101F10000F931F93CF93DF93C62F6A017901B80106
:101F20000E94D20E97FD0CC0B8018C2F0E942E0F7C
:101F3000E601EC0CFD1CCE15DF0511F097FF0CC07F
:101F400024E92093BC00DF91CF911F910F91FF9066
:101F5000EF90DF90CF900895B80189910E942E0FE5
:101F6000EACF84E98093BC0008959093DE018093CA
:101F7000DD010895E091DD01F091DE01309721F05F
:101F80000190F081E02D099480E00895E091DD0159
:101F9000F091DE01309799F020911301222359F03E
:101FA0002091A10227FF07C0DC012C9111962C93F0
:101FB000119725E02C930280F381E02D0994089578
:101FC0002091DB013091DC012817390771F09093E3
:101FD000DC018093DB01E091DD01F091DE013097BF
:101FE00021F00680F781E02D099408952091D90110
:101FF0003091DA012817390771F09093DA01809354
:10200000D901E091DD01F091DE01309721F00084EB
:10201000F185E02D099408950E940F1D6093F00151
:102020007093F1018093F2019093F3016093EC01BE
:102030007093ED018093EE019093EF0108950E945B
:102040000F1D6093F0017093F1018093F201909362
:10205000F3016093E8017093E9018093EA019093A2
:10206000EB01089585B7806885BF85B7806885BF17
:102070000895089508950C94391008950C943D1016
:102080000E94321086E19BE10E945F1D0E943A107F
:102090000C943B1081E008950C944A100895089523
:1020A0000E944E100C944F100E94FA1C0E94870848
:1020B00080E00E941E0A0E9481090C943E107F92CB
:1020C0008F929F92AF92BF92CF92DF92EF92FF9248
:1020D0000F931F93CF93DF93CDB7DEB72A970FB639
:1020E000F894DEBF0FBECDBF0E94C508A82E811197
:1020F0000E940C1050EE852E51E0952E10E000E06D
:10210000702E802F0E945E086C01F401E190F19026
:102110004F01E816F90609F468C080917D0281FD3F
:102120000E946708C7018C259D25B12CEE24E394FD
:10213000F12C9C012E213F21232B09F450C00E9439
:102140004C108823A9F0BE827F82CE20DF2081E060
:10215000CD2809F480E088870E94031D8160782FD4
:102160009A8789874E815F8168858A850E942011C0
:10217000000F111FF801E052FE4F80819181E82687
:10218000F926F182E0820E949109182F81110E94A4
:102190001F100E94950CA11001C011110E945E0B2E
:1021A0000E94BA0F9091DF018917B1F10E94BA0F16
:1021B0008093DF012A960FB6F894DEBF0FBECDBF25
:1021C000DF91CF911F910F91FF90EF90DF90CF9013
:1021D000BF90AF909F908F907F900C942506B39402
:1021E000EE0CFF1CFDE0BF12A4CF0F5F1F4F0430A9
:1021F000110509F085CF8FEF89838A831B820E94A6
:10220000031D8160782F9D838C8349815A816B8166
:102210008D810E942011B7CF2A960FB6F894DEBFA9
:102220000FBECDBFDF91CF911F910F91FF90EF9027
:10223000DF90CF90BF90AF909F908F907F90089548
:10224000DF92EF92FF920F931F93CF93DF93CDB75F
:10225000DEB72B970FB6F894DEBF0FBECDBF7A87DF
:102260008B87F42E052F162FE72ED82E61110E9492
:10227000791A1E821D827E2DEC82DD824F2D502F19
:10228000612F8D2D9E812B960FB6F894DEBF0FBE69
:10229000CDBFDF91CF911F910F91FF90EF90DF9015
:1022A0000C942F17FC01808191810C94E519CF9338
:1022B000C82F882309F483C08238C1F40E94BA0F62
:1022C00081FD7DC089E30E94131A0E94A91A2FEF95
:1022D00081EE94E0215080409040E1F700C0000082
:1022E00089E30E941A1ACF910C94A91A8338A1F499
:1022F0000E94BA0F80FD63C083E50E94131A0E94FA
:10230000A91A2FEF81EE94E0215080409040E1F730
:1023100000C0000083E5E5CF8438A1F40E94BA0F25
:1023200082FD4DC087E40E94131A0E94A91A2FEF64
:1023300081EE94E0215080409040E1F700C0000021
:1023400087E4CFCF8CEF8C0F813A90F46C2F809183
:102350000701909108010E94D81B882329F08C2F37
:102360000E941A1A0E94A91A8C2F0E94131ABBCF1E
:1023700080E28C0F883048F4C77081E001C0880F7C
:10238000CA95EAF70E945C1AAECFEBE5EC0FE3309A
:1023900040F4F0E0E456FE4F808190E0CF910C9441
:1023A000E00FC85AC73158F4EC2FF0E0EE0FFF1FD2
:1023B000E259FE4F80819181CF910C94F60FCF911D
:1023C0000895882309F44BC0823871F40E94BA0F33
:1023D00081FF45C089E30E94131A0E94A91A89E36C
:1023E0000E941A1A0C94A91A833859F40E94BA0F41
:1023F00080FF35C083E50E94131A0E94A91A83E565
:10240000EFCF843859F40E94BA0F82FF28C087E4C6
:102410000E94131A0E94A91A87E4E2CF9CEF980F3A
:10242000913AF0F290E2980F983050F4877091E072
:1024300001C0990F8A95EAF7892F0E94621AD2CFBC
:102440009BE5980F933020F490E080E00C94E00F2F
:10245000885A873120F490E080E00C94F60F0895BC
:102460001F93CF93DF93182FEB010E9457112097F2
:1024700031F4812FDF91CF911F910C94E1118FE9FD
:102480009FE00197F1F700C000002197F0CF70E0C6
:1024900060E0893311F460E570E00C943012882319
:1024A00021F00E945C1A0C94A91A0895882321F047
:1024B0000E94621A0C94A91A0895BF92CF92DF92DB
:1024C000EF92FF920F931F93CF93DF936C01D62F60
:1024D000C72FFC011281058102950F700E94311AED
:1024E000E82E8823A1F0E12E112389F08C2F807F24
:1024F000803429F080E28D0FE12C883040F082E0BA
:102500000E94FA1A0E94311A91E0E82EE926BC2EA8
:10251000B2949FE0B922EB2DF0E0EA56FB4D0C940B
:1025200036240C2F0F70C07F11F00295007F11230D
:10253000A9F0002359F080E28D0F883010F0D111FE
:1025400009C0802F0E945C1A0E94A91A8D2F0E9438
:10255000571114C0802F0E946C1AF6CF8D2F0E9445
:10256000E111002359F080E28D0F883010F0D11175
:102570002CC0802F0E94621A0E94A91A2B2D28506D
:10258000330B2430310520F40E94BA0F0E94250637
:10259000EE2009F493C10E942D1A80FD8FC1F6012F
:1025A00012820E94271A0E94B318C6010E947F144B
:1025B0000E94271ADF91CF911F910F91FF90EF900A
:1025C000DF90CF90BF900C94D418802F0E94721A85
:1025D000D3CFFC2FFF70FF2EC07FC03219F0F294D2
:1025E00080EFF822DD2369F0D13049F1112391F118
:1025F000002351F1F601858180FFA8CF8F7085837C
:1026000023C0112381F0011106C00E948C1A8F296A
:102610000E944F12B3CF0130C1F70E948C1A8F294C
:102620000E94921AABCF011106C00E949F1A8F2DF3
:102630000E945612A3CF013009F4A0CFF6CF112388
:1026400029F0063008F09ACF8F2DE2CF053008F040
:1026500095CFEDCF002359F3D93349F4FFEF27EE9F
:1026600033E0F15020403040E1F700C000008D2FF2
:102670000E94E11183CF8C2F86958695837069F037
:10268000813009F07BCF8D2F9C2F9370111102C0E8
:1026900090E080E00E94F60F71CF8D2F9C2F9370F9
:1026A000111102C090E080E00E94E00F67CF8C2FF4
:1026B000837009F041C0111161CF4D2F42954695AD
:1026C0004770440F440F0D2F0F7010E030E020E0F2
:1026D000042E04C0000F111F221F331F0A94D2F7CB
:1026E00060E070E0CB01D4FF0FC06FE070E080E0ED
:1026F00090E004C0660F771F881F991F4A95D2F794
:102700006095709580959095C695C695C370602B21
:10271000712B822B932BC23049F058F4C13019F041
:102720000E9465182BCF0E94531828CF0E9477185B
:1027300025CF0E94511822CF8695112311F08C2F9E
:102740008170882309F41ACF4D2F42954695477022
:10275000440F440F0D2F0F7010E030E020E0042EE6
:1027600004C0000F111F221F331F0A94D2F760E02C
:1027700070E0CB01D4FF0FC06FE070E080E090E02C
:1027800004C0660F771F881F991F4A95D2F760957E
:10279000709580959095C695C695C370602B712BEA
:1027A000822B932BC23049F058F4C13019F00E94AB
:1027B0002A19E4CE0E941819E1CE0E943C19DECEFF
:1027C0000E948D18DBCECF70112329F08C2F0E9430
:1027D000B3188D2F1DCF8D2F0E9456128C2F0E9463
:1027E000D418CCCED23F89F160F4D03FC9F0D13FAC
:1027F00029F1112309F442C00111A8CE8C2F8F7149
:1028000021C0D33F39F1D43FA1F7112369F1CF7132
:102810008C2F0E94B31863E08C2F0E94DF1AAECE7B
:10282000112341F0053008F0A9CE8C2F8F710E9442
:10283000F718A4CE063008F0A1CEF7CF8C2F8F71F9
:10284000112369F20E94B31899CE8C2F8F71112336
:10285000C9F3C5CF112329F08C2F8F710E949E18C8
:102860008DCE0E9499188ACE81E00E94FA1A023019
:1028700008F484CE82E00E94FA1A80CE002359F038
:10288000D93309F0F4CE8FEF97EEE3E0815090401A
:10289000E040E1F7EACE8C2F8F71A1CF4C2F4F7023
:1028A0006D2FC6010E942D060E94C91767CE4C2FBE
:1028B0004F706D2FC6010E94300660CEDF91CF9120
:1028C0001F910F91FF90EF90DF90CF90BF900895F0
:1028D0000F931F93CF93DF93EC01688179818A81F5
:1028E0000E94EF198C010E944E190E945018B801E5
:1028F000CE01DF91CF911F910F910C945D12CF9378
:10290000DF93EC018B819C81892B29F0888199814F
:1029100089238F3F59F4DF91CF910895CE010E9412
:102920006814CE01DF91CF910C945E05CE010E9418
:102930007F058111F3CF0E94311A882361F38A81C8
:10294000882349F382E0DF91CF910C94FA1A90E04A
:1029500080E00E94E00F90E080E00E94F60F0E946D
:10296000791A0E94891A0C94A91A0E94211A0C94AF
:10297000A7140E94691A0C94B514E92FE295EF7020
:10298000E250EE3070F4F0E0EA55FB4D0C94362442
:10299000803F19F020F4883E20F481E00895843FC0
:1029A000E1F380E00895883EC0F3813FD1F7F5CF91
:1029B00093FB882780F908950E94E5190C94BD14B3
:1029C000CF93DF9300D000D00F92CDB7DEB70F903A
:1029D0000F900F900F900F90DF91CF910895CF93AC
:1029E000DF9300D000D000D0CDB7DEB726960FB66B
:1029F000F894DEBF0FBECDBFDF91CF9108951F9336
:102A0000CF93DF93C091F50116E08091F6018C130E
:102A100004C0DF91CF911F910895D0E01C9FF00179
:102A20001D9FF00D1124E950FE4F408151816281BC
:102A30007381848195810E94EF142196C770E5CF40
:102A400040912702509128026091290270912A0238
:102A500080912B0290912C020C94EF141F93CF9332
:102A6000DF9380912C02807FA9F480912902882332
:102A700089F08091F501C091F60160912702709173
:102A80002802A0912A02B0912B02D62FD72316E05C
:102A9000C81304C0DF91CF911F91089590E0109763
:102AA00011F0DF3F19F401968770F2CF189F900163
:102AB000199F300D1124F901E950FE4F4181471350
:102AC000F2CF40814613EFCF42814111ECCF4381D9
:102AD00054814A1B5B0B483C510528F780912C021E
:102AE0008F70806180932C02F901E450FE4F808149
:102AF0008F708061808387E292E00E947F14DF9173
:102B0000CF911F910C94FF14AF92BF92CF92DF929E
:102B1000EF92FF920F931F93CF93DF93CDB7DEB762
:102B200061970FB6F894DEBF0FBECDBF8C0185E074
:102B3000F801DE011D9601900D928A95E1F7F801EA
:102B400040815181E28087E2C82E82E0D82E6091D8
:102B50002A0270912B026115710509F461C19091EF
:102B6000270220912802892F82238F3F09F458C120
:102B7000A380B480F0902902F501E61BF70BFF203B
:102B800009F4FCC080912C02382F307FE83CF1051D
:102B900008F0B2C0311179C0FE2C251323C0941364
:102BA00021C0E1101FC08F70806180932C020E94B1
:102BB0002015C6010E947F1480912C02F8018583A4
:102BC0008F2D61960FB6F894DEBF0FBECDBFDF919B
:102BD000CF911F910F91FF90EF90DF90CF90BF901A
:102BE000AF900895AB2829F0842F85238F3F09F0FB
:102BF00033C180E0F82FF170DF2E80FF3CC0809160
:102C0000F5012091F60136E0821315C04D875E87ED
:102C10008D859E850E94E519292F22952F702230DF
:102C2000F0F0243018F59F70F1F0F8019581907F55
:102C3000D1F4D12C1EC090E0389FF001399FF00DE7
:102C40001124E950FE4F6181651306C06081641351
:102C500003C062816E110FC001968770D5CF9F703F
:102C600011F0882331F3805E883018F3C8010E9488
:102C70007F14FD2CA5CFEE2009F4A2CF80912C0269
:102C8000816080932C02F12C9BCF251306C09413F6
:102C900004C0F801EE2009F48DC04D875E878D8554
:102CA0009E850E94DC14882319F1EE2009F18091A1
:102CB0002C02803270F02091270230912802388750
:102CC0002F831986BB86AA868C87CE0107960E9421
:102CD0007F1486E0F801A7E2B2E001900D928A9598
:102CE000E1F70E942E150E942015FF24F39468CF6F
:102CF000C8010E947F14F9CF311113C07A2DB98A0F
:102D0000A88A6E2D89890E94E01487E292E00E94D1
:102D10007F1486E0F60111928A95E9F70E9420154A
:102D2000B2CF25130FC094130DC0E1100BC0F801F2
:102D30008583C8010E947F1486E0F60111928A956E
:102D4000E9F73ECF4D875E878D859E850E94DC1416
:102D5000882371F2EE2061F280912C02803208F417
:102D6000B8CF20912702309128023A8329831B8211
:102D7000BD82AC828E83CE010196A9CFE83CF105DD
:102D800008F041C0FE2CEE2009F4B2CF25132AC072
:102D9000941328C080912C0280FD1BC0982F907F37
:102DA000C1F0F8018583903F31F0982F907F905FBC
:102DB0008F70892B8583C8010E947F1486E0F801FB
:102DC000A7E2B2E001900D928A95E1F70E942015EA
:102DD000F7CE86E0F801A7E2B2E001900D928A9565
:102DE000E1F7EECE4D875E878D859E850E94DC14CF
:102DF00081116FCF80912C02816080932C02C801D9
:102E00000E947F14DDCE7A2DB98AA88A6E2D898919
:102E10000E94E01486E0F60111928A95E9F7D6CF78
:102E2000EE2009F465CF4D875E878D859E850E94D3
:102E3000DC14F82E882309F45BCF86E0F801A7E2C2
:102E4000B2E001900D928A95E1F787E292E00E944C
:102E500052110E942E15BACF81E08E25CBCE1F9342
:102E6000CF93DF93CDB7DEB72C970FB6F894DEBFC4
:102E70000FBECDBF4F83588769877A878B879C8722
:102E8000CE0107960E948415882369F08A859B8568
:102E9000892B39F04F815885842F85238F3F09F086
:102EA00071C016E05FC086E0FE013796DE01119624
:102EB00001900D928A95E1F78A859B85892B89F38C
:102EC0008F81988589238F3F61F32091F60130E04F
:102ED000C9010196877099274091F5014817190695
:102EE00071F40E94B9141092F6011092F50186E077
:102EF000E7E2F2E0DF011D928A95E9F7D2CF96E092
:102F0000929FD001939FB00D1124A950BE4FFE0196
:102F1000319601900D929A95E1F78093F6010E9407
:102F2000FF14BFCF819FC001112489509E4F0E9482
:102F300084158823E9F0E091F5011E9FF00111242A
:102F4000E950FE4F40815181628173818481958176
:102F50000E94EF148091F50190E001968770992707
:102F60008093F5018091F5019091F6018913DACFF4
:102F70002C960FB6F894DEBF0FBECDBFDF91CF9178
:102F80001F91089569857A858B859C850E94EF1431
:102F900088CFEF92FF920F931F93CF93DF938C0113
:102FA000892B81F0F12CEE24E394E8012196F801BD
:102FB0008491843770F4843008F05FC08130B1F0C0
:102FC0008230A1F1DF91CF911F910F91FF90EF908F
:102FD0000895853709F44CC008F43DC09CE7980F6C
:102FE000903780F78F770E94E11149C00E5F1F4F25
:102FF000FE01849190E2980F983060F48770FE2D66
:1030000001C0FF0F8A95EAF78F2F0E947C1A0E9459
:10301000A91A02C00E9457118F2D815030F2EFE99A
:10302000FFE03197F1F700C00000F7CF0E5F1F4FB0
:10303000FE01849190E2980F983050F48770FE2D35
:1030400001C0FF0F8A95EAF78F2F0E94821ADFCF07
:103050000E94E111E1CF0E5F1F4FFE01C491C150EC
:10306000D8F28FE99FE00197F1F700C00000F7CF99
:103070000E5F1F4FFE01F490CFCF0E9457118E01BB
:10308000CBCF08950C9441180E94421860935402CB
:103090007093550280935602909357020C94A71494
:1030A00008950C9444180F931F93009154021091AB
:1030B00055022091560230915702602B712B822BC2
:1030C000932B1F910F910C9444180F931F93009111
:1030D00054021091550220915602309157026023FC
:1030E0007123822393231F910F910C9444180F9303
:1030F0001F93009154021091550220915602309175
:10310000570260277127822793271F910F910C94F4
:1031100044180C9441180C9489180E948B186093E1
:1031200050027093510280935202909353020C9478
:10313000A71460E070E0CB010C948D180F931F93DF
:1031400041E050E060E070E08A019B0104C0000FA4
:10315000111F221F331F8A95D2F7C901B8011F9191
:103160000F910C948D180F931F9341E050E060E095
:1031700070E004C0440F551F661F771F8A95D2F771
:103180008091500290915102A0915202B09153024D
:103190008A019B01082B192B2A2B3B2BC901B80153
:1031A0001F910F910C948D180F931F9341E050E0E5
:1031B00060E070E004C0440F551F661F771F8A95BA
:1031C000D2F7CB01BA0160957095809590950091EA
:1031D000500210915102209152023091530260230B
:1031E0007123822393231F910F910C948D180F93B9
:1031F0001F9341E050E060E070E004C0440F551FB1
:10320000661F771F8A95D2F78091500290915102E4
:10321000A0915202B09153028A019B0108271927FD
:103220002A273B27C901B8011F910F910C948D18D3
:103230000F931F930091500210915102209152025E
:1032400030915302602B712B822B932B1F910F9186
:103250000C948D180F931F930091500210915102FE
:1032600020915202309153026023712382239323D1
:103270001F910F910C948D180F931F930091500282
:103280001091510220915202309153026027712710
:10329000822793271F910F910C948D1808952DE08C
:1032A000929F800D1124982F977041E001C0440F28
:1032B0009A95EAF786958695869595E0899FF0011F
:1032C0001124E35DFD4F90E080E070E05191DF015B
:1032D00011979B01082E02C0369527950A94E2F7B4
:1032E000217021952527242325272C9301968530AD
:1032F000910561F708952DE0929F800D1124982F7C
:10330000977086958695869525E0829FF001112419
:10331000E35DFD4F50E040E080E0219130E0092E78
:1033200002C0369527950A94E2F721703327042EC0
:1033300001C0220F0A94EAF7822B4F5F5F4F45309E
:10334000510559F70895BF92CF92DF92EF92FF9205
:103350000F931F93CF93DF938C01C0905002D090B6
:103360005102E0905202F0905302809154029091E9
:103370005502A0915602B0915702C82AD92AEA2ACA
:10338000FB2ACFE1D0E0BC2ED701C6010C2E04C031
:10339000B695A795979587950A94D2F780FD0EC0AC
:1033A000219788F7B12C8B2DDF91CF911F910F9131
:1033B000FF90EF90DF90CF90BF900895B8018C2FD1
:1033C0000E944D06019761F3EECFCF93DF93EC019E
:1033D0000E94A319BE01DF91CF910C944D061F935B
:1033E000CF93DF93EB019091F401992331F0CB015E
:1033F000DF91CF911F910C94E519882379F0CB01CF
:103400000E94A319182F682FCE010E944F19BE01E8
:10341000812FDF91CF911F910C944D06CB010E941B
:103420007B19182FF4CF682F809107019091080124
:103430000C94581C682F80910701909108010C94FE
:10344000631C80910701909108010C946E1C80917F
:1034500058028595859585950895809158028770C5
:10346000089590915802977081E009F480E00895E2
:103470009091A20292FB222720F9281751F080FB9D
:1034800092F99093A2028091A1029091A2020C94D1
:10349000391B08958091A20282FB882780F991E070
:1034A00089270C94381A81E00C94381A80E00C9427
:1034B000381A80917C02089590917C02892B809328
:1034C0007C020895809590917C02982390937C02D1
:1034D000089510927C02089590917B02892B80932D
:1034E0007B020895809590917B02982390937B02B4
:1034F000089510927B02089590917A02892B80930F
:103500007A020895809590917A02982390937A0296
:10351000089510927A0208958091590208950895AD
:103520000C948F1A9091A20292FD08C090915902BA
:10353000981721F0809359020C94901A0895809165
:103540005902882329F01092590280E00C94901AB5
:103550000895E0910701F091080180917C02808339
:10356000E0910701F0910801808190917B02892B05
:103570008083E0910701F0910801808190917A02A7
:10358000892B808390915902992381F0E091070162
:10359000F09108018081892B8083809107019091AF
:1035A00008010E94C41B81110E949F1A809107018B
:1035B000909108010C94C60F08950C94DC1A909118
:1035C000A20292FD10C098E0899F90011124622B05
:1035D000609358020E94B318809158028595859592
:1035E00085950C94DD1A0C94B3181092580280E063
:1035F0000C94DD1A9091580280958923809358028B
:10360000282F277039F4282F082E000C330B92171F
:10361000130621F49091A20292FF07C0859585952B
:1036200085950E94D4180C94F51A089580E00895A9
:1036300090E080E00E945A2421E08A3E9E4F09F0EB
:1036400020E0822F089582E090E00C94522483E0E1
:1036500090E00C945224CF9384E090E00E94522496
:10366000C82F82E290E00E945224982F8C2FCF9195
:103670000895CF93C92F682F84E090E00E946024C2
:103680006C2F82E290E0CF910C946024AB01BC01DE
:103690008FE090E00C947224AB01BC0183E190E0D8
:1036A0000C94722460E070E0CB010C944C1B60E041
:1036B00070E0CB010E94461B0C94521B6AEE7EEF19
:1036C00090E080E00E947E2460E082E090E00E9432
:1036D000602460E083E090E00E9460241092540235
:1036E00010925502109256021092570260E084E048
:1036F00090E00E94602460E082E290E00E946024FA
:1037000060E085E090E00E94602460E086E090E068
:103710000E9460246FEF87E090E00E94602440E008
:1037200050E0BA0188E090E00E94722460E08DE0F1
:1037300090E00E94602440E050E0BA0188E190E00F
:103740000E94722460E087E190E00E94602440E0E3
:1037500050E0BA018CE190E00E94722470E060E0D9
:1037600080E290E00E947E2440E050E0BA0188E1CF
:1037700090E00E9472240C94571B0C945E1B682FDF
:103780008EE090E00C946024FC013296809113014D
:10379000882321F08091A1029EE187FF96E080E0DE
:1037A000915008F4089521912223D1F38F5FF8CF2F
:1037B000662301F1209113012223F1F02091A1024F
:1037C00027FF1AC0462F4695469546954E3190F4F0
:1037D000677021E030E002C0220F331F6A95E2F7E4
:1037E000840F911DFC01828190E02823392381E020
:1037F000232B69F480E00895FC013296089621910C
:10380000261721F0E817F907D1F7F4CF81E00895E2
:103810009C01FC0132969FEF80E04191461751F0E8
:103820009F3F19F4411101C0982F8F5F8630A9F78F
:103830009F3F09F40895290F311D97FD3A95F9012D
:1038400062830895FC01329608962191261303C0E5
:10385000DF0111971C92E817F907B9F70895E62FD1
:10386000E695E695E695EE3168F4E80FF92FF11D3F
:10387000677021E030E001C0220F6A95EAF782818B
:10388000822B82830895E62FE695E695E695EE3144
:1038900070F4E80FF92FF11D677021E030E001C0EE
:1038A000220F6A95EAF720958281282322830895C2
:1038B00020911301222329F02091A10227FD0C94CD
:1038C0002F1C0C94081C20911301222329F0209115
:1038D000A10227FD0C94431C0C94221CFC0132967F
:1038E00080911301882351F08091A10287FF06C0C7
:1038F0008EE1DF011D928A95E9F7089586E0F9CF00
:10390000089508950C94811C8091C104843049F17C
:103910000E94821C80E00E94250610927E0288E1AF
:1039200090E020E40FB6F894A895809360000FBE55
:103930002093600083B7817F846083BF83B78160F9
:1039400083BF7894889583B78E7F83BF0FB6F89432
:10395000A89580916000886180936000109260005B
:103960000FBE08950895CF930E94801C0E94C50841
:103970000E94B21CC0E08C2F0E945E08892B31F49B
:10398000CF5FC430C1F780E0CF91089581E0FCCFD4
:1039900008950C94C81C0E94B9140E94BA0F0E948A
:1039A00025060C94C91C1F921FB61F9211248F93D9
:1039B0009F93AF93BF9380917E02811113C080913A
:1039C000B9049091BA04A091BB04B091BC04419693
:1039D000A11DB11D8093B9049093BA04A093BB04B8
:1039E000B093BC04BF91AF919F918F911F901FBE68
:1039F0001F90189582E084BD93E095BD9AEF97BD26
:103A000080936E0008952FB7F8948091B904909137
:103A1000BA04A091BB04B091BC042FBF08952FB786
:103A2000F8946091B9047091BA048091BB049091AC
:103A3000BC042FBF08959C014FB7F8948091B9043E
:103A40009091BA04A091BB04B091BC044FBF821BFB
:103A5000930B089578941F921FB61F9211248F9391
:103A60009F93AF93BF938091B9049091BA04A091B2
:103A7000BB04B091BC040196A11DB11D8093B90493
:103A80009093BA04A093BB04B093BC04BF91AF91D0
:103A90009F918F911F901FBE1F90189587E797E702
:103AA000909301088093000888E19AE00FB6F8949B
:103AB000A895809360000FBE90936000FFCF909315
:103AC000A1018093A001089580919F020895089517
:103AD000CF93DF9300D00F92CDB7DEB79091C104A2
:103AE000943019F589837B836A8382E08093E900AF
:103AF0008FEF9091E800815095FD06C095ED9A9565
:103B0000F1F700008111F5CF8091E80085FF0DC02D
:103B100050E040E063E070E0CE0101960E94711F2A
:103B20008091E8008E778093E8000F900F900F90BF
:103B3000DF91CF910895BC0184E00C94681DBC0115
:103B400083E00C94681DCF93DF93EC018091130107
:103B50008823B1F18091A10287FF32C060E282E048
:103B60008093E9008FEF9091E800815095FD06C0A9
:103B700095ED9A95F1F700008111F5CF8091E8005D
:103B800085FF1BC08091130170E050E040E081117F
:103B900004C050E040E068E070E0CE010E94711F78
:103BA0008091E8008E778093E80080E2FE01AFE725
:103BB000B2E001900D928A95E1F7DF91CF910895DF
:103BC00068E081E0CDCF8091C004811109C00E94DE
:103BD00001210E945E218091E20084608093E200D6
:103BE00008951092C004089508950895089542E03C
:103BF00061EC81E00E947D2042E261EC82E00C9465
:103C00007D208091C304833009F45FC030F481309B
:103C1000C1F1823009F49BC008958A3009F487C04D
:103C20008B3009F46DC0893009F04EC08091C20418
:103C3000813209F049C08091C6049091C70402976F
:103C400008F042C08091E800877F8093E80080916F
:103C5000E80082FF35C09091F3008091F200029756
:103C600029F48091F1008B7F813021F48091F10063
:103C700080939F028091E8008B778093E8000C94FA
:103C8000B1208091C204813AF9F48091E800877FE5
:103C90008093E8008091C6049091C704892B61F459
:103CA00060E28FE792E070E00E94C01F8091E80020
:103CB0008B778093E800089560E090E080E0F3CF98
:103CC0008091C1048111C3CF08958091C204813ACB
:103CD000D9F78091C6049091C704892BA9F78091E8
:103CE000E800877F8093E8008091E80080FFFCCFA8
:103CF000809113018093F1008091E8008E77BDCF11
:103D00008091C204813201F78091C6049091C7046A
:103D1000892BD1F68091E800877F8093E8000E948C
:103D2000B1208091C404809313010C94B914809144
:103D3000C204813249F68091E800877F8093E800D1
:103D40000E94B1208091C5048093A00208958091C3
:103D5000C204813A09F0B8CF8091E800877F809350
:103D6000E8008091E80080FFFCCF8091A002C2CFE4
:103D700084B7877F84BF0FB6F894A89580916000C0
:103D8000886180936000109260000FBE80E890E030
:103D90000FB6F89480936100909361000FBE0E946B
:103DA00040100E9401210E945E218091E200846007
:103DB0008093E20078940E94E7230E94541089E0E7
:103DC00091E00E94B50F8091C104853099F00E9466
:103DD0005F100E945010F7CF0E94841C8091BF0496
:103DE000882341F00E94B31C882321F00E945B1FAE
:103DF0000E94B9148091C104853071F30E94CB1CDC
:103E0000E6CF0C94031F292F33272330310519F1F6
:103E100068F42130310509F444C02230310509F439
:103E200045C090E080E030E020E025C0213231053F
:103E300049F122323105A9F780E490E02FEB38E018
:103E400061157105C1F08DE690E022E538E0613042
:103E5000710589F0E6CF99278130910581F00097AF
:103E600029F00297F1F6E3EDF7E002C0E1E0F8E0B7
:103E7000849190E09F01FA01318320830895E9EE57
:103E8000F7E0F6CF89E090E027E138E061157105B1
:103E900091F389E090E020E338E06130710559F357
:103EA000C0CF82E190E020E438E0E5CF8BE390E002
:103EB00025E038E0E0CF80E189BD82E189BD09B429
:103EC00000FEFDCF8091D8008F7D8093D800809137
:103ED000E00082608093E0008091E00081FDFCCFF3
:103EE0000895AF92BF92CF92DF92FF920F931F93EC
:103EF000CF93DF936C01EB018A010E94D020F82E52
:103F0000811123C00115110539F0F80180819181DB
:103F1000C81BD90BC80ED91EB12CA12C2097A9F013
:103F20008091E80085FD22C08091E8008E77809323
:103F3000E80001151105A1F0F80180819181A80E1A
:103F4000B91EB182A08285E0F82E8F2DDF91CF912E
:103F50001F910F91FF90DF90CF90BF90AF90089589
:103F60000E94D0208823D1F2F82EEFCFF601819164
:103F70006F018093F1002197FFEFAF1ABF0ACECFF8
:103F8000FC018091C8049091C90486179707A0F09E
:103F90006115710529F49091E8009E779093E800EF
:103FA00090E06115710551F4911108C08091E8000D
:103FB00082FF34C080E00895BC01F2CF8091C1043B
:103FC0008823C1F18530C1F18091E80083FD30C0C4
:103FD0008091E80082FDEACF8091E80080FFE1CF88
:103FE0008091F3002091F200382F6115710519F0CE
:103FF0002830310558F091E02830310509F090E083
:104000002091E8002E772093E800CBCF8191809318
:10401000F100615071092F5F3F4FE7CF8091C104DC
:10402000882341F0853041F08091E80083FFBECFC6
:1040300081E0089582E0089583E00895FC01809175
:10404000C8049091C90486179707A0F061157105FF
:1040500029F48091E8008E778093E80090E0611564
:10406000710551F4911108C08091E80082FF35C0BC
:1040700080E00895BC01F2CF8091C1048823C9F18A
:104080008530C9F18091E80083FD31C08091E8005E
:1040900082FDEACF8091E80080FFE1CF8091F300BC
:1040A0002091F200382F6115710519F02830310583
:1040B00058F091E02830310509F090E08091E80057
:1040C0008E778093E800CBCF84918093F100319676
:1040D000615071092F5F3F4FE6CF8091C104882363
:1040E00041F0853041F08091E80083FFBDCF81E051
:1040F000089582E0089583E00895982F973028F07E
:104100008F708093E90081E008959093E900242F57
:10411000762F50E0981731F07091EC002091ED006F
:104120005091F00021FD02C09F5FE8CF3091EB007D
:104130003E7F3093EB003091ED003D7F3093ED00FA
:104140003091EB0031603093EB007093EC002093E2
:10415000ED005093F0002091EE0027FDE5CF80E0C8
:1041600008958091C20487FF13C08091E80082FF08
:1041700006C08091E8008B778093E80004C08091AE
:10418000C1048111F2CF08958091C1048823D9F32D
:104190008091E80080FFF8CF8091E8008E77ECCF27
:1041A0002091E4003091E50095E6A9012091EC0012
:1041B000822F817020FF06C08091E80080FF06C03A
:1041C00080E008952091E80022FD1AC08091C1048A
:1041D000882389F0853089F08091EB0085FD0FC040
:1041E0002091E4003091E50042175307F9F2915015
:1041F000E1F684E0089582E0089583E0089581E087
:1042000008950E946F210E947721E0EEF0E0808106
:1042100081608083E8EDF0E080818F77808319BC36
:10422000A7EDB0E08C918E7F8C9380818F7E808310
:104230001092C00408950F931F93CF93DF930E94B1
:104240006F210E947721C8EDD0E088818F77888325
:1042500088818068888388818F7D888319BC1092CB
:10426000C1041092BD041092BF041092BE0400EE6F
:1042700010E0F80180818B7F808388818160888352
:1042800042E060E080E00E947D20E1EEF0E080818D
:104290008E7F8083E2EEF0E0808181608083808188
:1042A00088608083F80180818E7F8083888180612F
:1042B0008883DF91CF911F910F910895E8EDF0E091
:1042C00080818F7E8083E7EDF0E080818160808354
:1042D00084E082BF81E08093C0040C941B21E8ED50
:1042E000F0E080818E7F80831092E200089510922A
:1042F000DA001092E10008951F920F920FB60F920C
:1043000011242F933F934F935F936F937F938F93DA
:104310009F93AF93BF93EF93FF938091E10082FF50
:104320000BC08091E20082FF07C08091E1008B7F8B
:104330008093E1000E94E6238091DA0080FF19C09B
:104340008091D80080FF15C08091DA008E7F809325
:10435000DA008091D90080FF96C080E189BD82E1BA
:1043600089BD09B400FEFDCF81E08093C1040E94A5
:10437000E31D8091E10080FF19C08091E20080FF81
:1043800015C08091E2008E7F8093E2008091E20070
:1043900080618093E2008091D80080628093D80091
:1043A00019BC85E08093C1040E94F51D8091E10055
:1043B00084FF2BC08091E20084FF27C080E189BD8B
:1043C00082E189BD89B5982F917080FFFBCF8091E4
:1043D000D8008F7D8093D8008091E1008F7E8093FC
:1043E000E1008091E2008F7E8093E2008091E20004
:1043F00081608093E2008091BD04882309F449C064
:1044000084E08093C1040E94F61D8091E10083FF47
:1044100029C08091E20083FF25C08091E100877F61
:104420008093E10082E08093C1041092BD048091EA
:10443000E1008E7F8093E1008091E2008E7F809387
:10444000E2008091E20080618093E20042E060E05F
:1044500080E00E947D208091F00088608093F000D1
:104460000E94F41DFF91EF91BF91AF919F918F91A9
:104470007F916F915F914F913F912F910F900FBE60
:104480000F901F90189519BC1092C1040E94F11D45
:1044900070CF8091E30087FD93E09093C104B3CF88
:1044A0001F920F920FB60F9211242F933F934F93A9
:1044B0005F936F937F938F939F93AF93BF93CF93AC
:1044C000DF93EF93FF93D091E900DF708091EC00D0
:1044D000C82FC17080FDC0E81092E9008091F00003
:1044E000877F8093F00078940E9494221092E900D4
:1044F0008091F00088608093F000CD2BCF70C09346
:10450000E900FF91EF91DF91CF91BF91AF919F9122
:104510008F917F916F915F914F913F912F910F906C
:104520000FBE0F901F9018951F93CF93DF93CDB7B9
:10453000DEB7AA970FB6F894DEBF0FBECDBF82ECF0
:1045400094E02091F100FC012193CF01F4E08A3C3A
:104550009F07B9F70E94011E8091E80083FF1EC1EA
:104560008091C2049091C3049A3008F017C1E92FDA
:10457000F0E0EC54FB4D0C943624803899F08238EE
:1045800009F00CC18091C6048F70873008F006C115
:104590008093E9008091EB0085FB882780F91092D9
:1045A000E90006C08091BE049091BF049111826021
:1045B0009091E800977F9093E8008093F10010922B
:1045C000F1008091E8008E77E5C0882309F4D3C01C
:1045D000823009F0E3C08091C4048111D6C080917B
:1045E000C6048F702FEF280F263008F0D7C08093B5
:1045F000E9002091EB0020FFC8C0933031F4809196
:10460000EB0080628093EB00C0C09091EB00906162
:104610009093EB0021E030E001C0220F8A95EAF789
:104620002093EA001092EA008091EB008860EACFC4
:104630008111B4C01091C4041F778091E300807889
:10464000812B8093E3008091E800877F8093E800CE
:104650000E94B1208091E80080FFFCCF8091E300B0
:1046600080688093E30082E0111183E08093C104AD
:1046700095C08058823008F091C08091C404909118
:10468000C5048C3D23E09207A1F583E08A838AE28A
:1046900089834FB7F894DE01139620E03EE051E2A3
:1046A000E32FF0E050935700E49120FF03C0E29520
:1046B000EF703F5FEF708E2F90E0EA30C0F0C7964A
:1046C0008D939D932F5F243159F74FBF8091E80060
:1046D000877F8093E8006AE270E0CE0101960E9435
:1046E000C01F8091E8008B778093E80057C0C09688
:1046F000E7CF6091C6047091C704AE014F5F5F4F72
:104700000E94011FBC01892B09F448C09091E80068
:10471000977F9093E80089819A810E941E20E1CFC3
:104720008038E1F58091E800877F8093E8008091F0
:10473000BD048093F10045CF811130C09091C40435
:10474000923060F58091E800877F8093E800909335
:10475000BD040E94B1208091BD04882311F084E043
:1047600005C08091E30087FDFACF81E08093C1040A
:104770000E94F71D13C08091C404813079F481E058
:10478000933009F080E08093BF041092E90080919B
:10479000E800877F8093E8000E94B1208091E800C4
:1047A00083FF0AC08091E800877F8093E8008091B2
:1047B000EB0080628093EB00AA960FB6F894DEBF00
:1047C0000FBECDBFDF91CF911F9108950895CF9374
:1047D0008091C1048823A1F0C091E900CF7090912D
:1047E000EC00892F817090FD80E8C82B1092E900C1
:1047F0008091E80083FD0E949422CF70C093E9006D
:10480000CF910895991B79E004C0991F961708F07D
:10481000961B881F7A95C9F780950895AA1BBB1B24
:1048200051E107C0AA1FBB1FA617B70710F0A61BB0
:10483000B70B881F991F5A95A9F780959095BC01D1
:10484000CD01089597FB072E16F4009407D077FD4D
:1048500009D00E940E2407FC05D03EF49095819566
:104860009F4F0895709561957F4F0895EE0FFF1F3C
:104870000590F491E02D0994FB01DC0102C0059044
:104880000D9241505040D8F70895FB01DC0104C05F
:104890008D910190801921F441505040C8F7881B38
:1048A000990B0895F999FECF92BD81BDF89A992789
:1048B00080B50895A8E1B0E042E050E00C94862471
:1048C000262FF999FECF92BD81BDF89A019700B4C9
:1048D000021639F01FBA20BD0FB6F894FA9AF99A69
:1048E0000FBE08950396272F0E9461240E94602422
:1048F000252F0E946124242F0C9461240196272FD8
:104900000E9461240C946024DC01CB01FC01F99924
:10491000FECF06C0F2BDE1BDF89A319600B40D920B
:1049200041505040B8F70895F894FFCF911291127A
:10493000E912E9123B13BE12BE12BE125713E31363
:10494000F213F2134E14BE12BE125714C814C81438
:10495000D114D114D314D114D114D114C814C8143F
:10496000D814D114D114D814BD22E522CE23E522C7
:0C497000CE2318233923CE2390239C2350
:10497C000021007F2200035A02641DA31D671D9FA6
:10498C001D9B1D01E200E900EA00B500B600B7006E
:10499C00CD008301CC008A019201940121022302F3
:1049AC0024022502260227022A02B300B4006F005B
:1049BC00700081828367663635349737F0F1F4F5F1
:1049CC00F6F73132339300FF0100010000FFFF00C6
:1049DC0000010001FF000008101818100800E20088
:1049EC00E900EA00B500B600B700CD008301CC00A9
:1049FC008A0192019401210223022402250226023B
:104A0C0027022A02B300B4006F0070008182830079
:00000001FF
