:100000000C9483040C94CA040C94CA040C94CA047F
:100010000C94CA040C94CA040C94CA040C94CA0428
:100020000C94CA040C94CA040C94EC200C94C021C7
:100030000C94291C0C94CA040C94CA040C94CA0491
:100040000C94CA040C94CA040C94CA040C94CA04F8
:100050000C94CA040C94801C0C94CA040C94CA041A
:100060000C94CA040C94CA040C94CA040C94CA04D8
:100070000C94CA040C94CA040C94CA040C94CA04C8
:100080000C94CA040C94CA040C94CA040C94CA04B8
:100090000C94CA040C94CA040C94CA040C94CA04A8
:1000A0000C94CA040C94CA040C94CA0441444A0A2D
:1000B000004C4F5745520A0052414953450A0042ED
:1000C0004153450A00004C41594552000A0A002993
:1000D0000014001A0008001500170000001C00188A
:1000E000000C00120013002A002B00040016000769
:1000F0000009000A0000000B000D000E000F003385
:10010000003400E1001D001B00060019000500007E
:1001100000110010003600370038002800E000E32E
:1001200000E200025128002C00A8002C00E500018C
:1001300051E600E700E40035001E001F002000210A
:100140000022000000230024002500260027004C88
:100150000039002D002E002F00300031000000007B
:10016000005000510052004F00310001000000001B
:10017000000000000000000000000000000000007F
:1001800000000000000100010001000351280000F0
:1001900000AE000000E50000000100010001003A8F
:1001A000003B003C003D003E003F0000004000419D
:1001B0000042004300440045000000000000000031
:1001C000000000000000000000000000002F0030D0
:1001D000000000000000000000000000000000001F
:1001E000000000000000000000000000000100010D
:1001F000000100000028000000A8000000E5000346
:10020000510100010001000000000000000000009A
:1002100000000000000000000000000000000000DE
:100220000000000000000000000000390000005342
:100230000047000000000000000000000000000077
:1002400000000000000000000000000000000000AE
:10025000000000000001000100010000000000009B
:1002600000A80000000000000001000100010000E3
:10027000AE00AF00DA02818FD9F1DB40A4A62EAF29
:1002800000A0C000A1C800AED580A81FD300408D3B
:100290001420000000000000003E5B4F5B3E003E6B
:1002A0006B4F6B3E001C3E7C3E1C00183C7E3C1895
:1002B000001C577D571C001C5E7F5E1C0000183C14
:1002C000180000FFE7C3E7FF00001824180000FF34
:1002D000E7DBE7FF0030483A060E00262979292699
:1002E00000407F05050700407F05253F005A3CE799
:1002F0003C5A007F3E1C1C0800081C1C3E7F00145A
:10030000227F2214005F5F005F5F0006097F017F8C
:1003100000006689956A0060606060600094A2FFDA
:10032000A2940008047E04080010207E201000081B
:10033000082A1C0800081C2A0808001E10101010AB
:10034000000C1E0C1E0C0030383E383000060E3EED
:100350000E060000000000000000005F000000002A
:100360000700070000147F147F1400242A7F2A123C
:100370000023130864620036495620500000080725
:10038000030000001C224100000041221C00002A42
:100390001C7F1C2A0008083E0808000080703000FE
:1003A000000808080808000000606000002010082D
:1003B0000402003E5149453E0000427F4000007269
:1003C00049494946002141494D33001814127F1014
:1003D000002745454539003C4A4949310041211132
:1003E000090700364949493600464949291E000097
:1003F00000140000000040340000000008142241F6
:1004000000141414141400004122140800020159AD
:100410000906003E415D594E007C1211127C007F9E
:1004200049494936003E41414122007F4141413E18
:10043000007F49494941007F09090901003E4141C6
:100440005173007F0808087F0000417F41000020B1
:1004500040413F01007F08142241007F404040405E
:10046000007F021C027F007F0408107F003E414194
:10047000413E007F09090906003E4151215E007F8F
:10048000091929460026494949320003017F010321
:10049000003F4040403F001F2040201F003F4038A9
:1004A000403F0063140814630003047804030061F0
:1004B00059494D4300007F4141410002040810208A
:1004C00000004141417F000402010204004040401D
:1004D0004040000003070800002054547840007F8B
:1004E0002844443800384444442800384444287F91
:1004F0000038545454180000087E09020018A4A4BF
:100500009C78007F080404780000447D40000020AF
:1005100040403D00007F102844000000417F400023
:10052000007C04780478007C080404780038444493
:10053000443800FC182424180018242418FC007CDB
:10054000080404080048545454240004043F44247C
:10055000003C4040207C001C2040201C003C4030DF
:10056000403C004428102844004C9090907C00446B
:1005700064544C440000083641000000007700003D
:10058000000041360800000201020402003C26235C
:10059000263C00000000000000404040F0F8F8FF5A
:1005A00038FFF8F83FF8F8FF38FFF8F8F04040401F
:1005B00000000000000080C0C0C0800000C0C080FB
:1005C00000000080C0C000C0C0000080C0C00000AB
:1005D000000000C0C0C0C0C000C0C00000000000DB
:1005E000000000000000000000000000000000000B
:1005F00000000000000000000000000000000000FB
:1006000000000000000000000000000000000000EA
:100610000000C0F0F8FC3E1E06010000007F4141D2
:10062000417F007F4141417F000080C0E07E5B4F01
:100630005BFEC00000C000DCD7DEDEDED7DC00C021
:1006400000000000000000000000000000000000AA
:10065000000000000000000000494949FFFFFFFFC3
:10066000E0DFBFBF00BFBFDFE0FFFFFFFF49494939
:1006700000000000001F3F6060E0BF1F007F7F0799
:100680001E381E077F7F007F7F0E1F3B71600000BA
:100690000000007F7F0C0C0C007E7E007F7E030339
:1006A000007F7E03037E7E03037F7E000F3E703C4F
:1006B000063C703E0F00327B49493F7E007F7E033F
:1006C00003001E3F69696F26000000000000000063
:1006D0000000030F1F3F3C7870600000007F414125
:1006E000417F007F4141417F00307B7F7830202077
:1006F00030787F3B0003000F7F0F0F0F7F0F000349
:1007000000000000000000000000000000000000E9
:10071000000000000000000000010101070F0F7F32
:100720000F7F0F0F7E0F0F7F0F7F0F0F070101014C
:1007300000000000000000000000010100000000B7
:1007400000000000000000000000000000000000A9
:100750000000000000000000000000000000000099
:100760000000000000000000000000000000000089
:100770000000000000000000000000000000000079
:100780000000000000000000000000000000000069
:100790000000000000000000000000000000000059
:1007A0000000000000000000000000000000000049
:1007B0000000000000000000000000000000000039
:1007C0000000000000000000000000000000000029
:1007D000000000040330000000140372006900737D
:1007E00000740072006500740074006F0000001651
:1007F000036600720075006900740079006B006583
:10080000006500620000000403090409023B0002C5
:100810000100A0FA090400000103010100092111EF
:100820000100012240000705810308000A090401B4
:10083000000103000000092111010001226D0007E1
:1008400005820320000A12011001000000086B66F7
:10085000737201000102030105010980A1018503F2
:1008600019012AB700150126B700950175108100FE
:10087000C0050C0901A101850419012AA002150176
:1008800026A002950175108100C005010906A1018D
:100890008505050719E029E715002501950875016B
:1008A00081020507190029EF1500250195F0750152
:1008B0008102050819012905950575019102950127
:1008C00075039101C005010906A101050719E02979
:1008D000E7150025019508750181029501750881CC
:1008E000010507190029FF150026FF009506750868
:1008F00081000508190129059505750191029501E9
:1009000075039101C00011241FBECFEFDAE0DEBFF6
:10091000CDBF04B603FE27C08091BC049091BD04F6
:10092000A091BE04B091BF048730904BA740B04B5C
:10093000D1F41092BC041092BD041092BE04109227
:10094000BF0414BE84B7877F84BF0FB6F894A89500
:1009500080916000886180936000109260000FBEFB
:10096000E0E0F8E3099511E0A0E0B1E0E4E3F8E4A9
:1009700002C005900D92A03AB107D9F724E0A0EA91
:10098000B1E001C01D92AC3BB207E1F70E942C1E02
:100990000C94F0230C940000811106C08AEA6111C6
:1009A00001C089EA0E94761181E0089583E00895EC
:1009B00060E08CEC90E00E94BF0A60E086EC90E082
:1009C0000E94D10A60E085EC90E00E94D10A60911B
:1009D00042027091430280914402909145020E942C
:1009E000271A813061F0882329F0823061F083304A
:1009F00071F0089560E08FEB90E00C94BF0A60E026
:100A000088EB90E0FACF60E081EB90E0F6CF60E019
:100A10008CEA90E0F2CF81E0089581E008950C9493
:100A20000D0508950C9411051F93CF93DF9300D00B
:100A300000D00F92CDB7DEB749835A836B833091D4
:100A4000E60189819A8131111DC06623B9F0222304
:100A5000A9F00E94E318182F682F89819A810E94BB
:100A60008F1869817A81812F0F900F900F900F90CE
:100A70000F90DF91CF911F910C94C4050E94BB1879
:100A8000182FEFCF0E94E31869817A81EDCFFC0126
:100A9000262F408151816281738184810C941405D9
:100AA000CF93DF93EC0160E00E944705BE01DF9128
:100AB000CF910C9412050E94741A811102C00E94F9
:100AC000111B0C94C7070C94CA0708950C94650574
:100AD00081E008950C946805CF93C82F0E946605A5
:100AE0008C2FCF910C946A0508950E94F6130E94F2
:100AF00074052FEF84E39CE0215080409040E1F7A3
:100B000000C000000C94A41C0F931F93CF93DF939D
:100B1000EC0161E00E9447058C01BE010E940F05B7
:100B2000882329F1BE01C8010E94B40C8823F9F082
:100B3000BE01C8010E94060D8823C9F0BE01C8018C
:100B40000E94290E882399F08A81882339F00115A3
:100B50008CE5180751F00E3D1C4579F0CE01DF9170
:100B6000CF911F910F910C940B050E94750580E0A9
:100B7000DF91CF911F910F9108950E94111BF7CF24
:100B800090E080E008950895972F70E02DE0929F07
:100B9000600D711D1124FB0194E3899FE00DF11D8F
:100BA0001124EE0FFF1FE153FF4F8591949108959B
:100BB000FC01EE0FFF1FE159FD4F859194910895BF
:100BC000CF93DF930E94C4050E94EC06EC018115CF
:100BD00020E5920708F041C0811530E4930708F042
:100BE000B4C0803E910518F5803C910508F09DC089
:100BF000883A910570F4853A910508F08EC08130ED
:100C00009105F9F00097E9F00497D8F4D0E0C0E03E
:100C100018C08F3B9105D0F7C85AD0E0CC0FDD1F2C
:100C2000CC5EDE4F0990D881C02DD4640AC08115F6
:100C3000904258F4C11581E0D80718F4C83ED10598
:100C400028F7CE01DF91CF910895C11590E3D90720
:100C500008F071C0CE019F706AC0811525E592072A
:100C600058F5811534E5930708F09EC0811542E5DB
:100C7000940750F4C11581E5D80708F469C0DC2F4A
:100C8000CC27C16FD06ADDCF982F969596959E019F
:100C900023703327C115D34508F077C0C1E0D0E0F9
:100CA00002C0CC0FDD1F2A95E2F720E2929FC0011F
:100CB0001124C82BD92B67C0C11589E5D807A8F422
:100CC000C11598E5D90708F074C0C11526E5D2070B
:100CD00008F09CCF8C2F0E948307C82FD0E0DC2F18
:100CE000CC27CC27DF71D062ACCFC1153AE5D30752
:100CF00008F464C0CE0190568115904208F086CF6A
:100D00008D2F8F710E94830790E0982F8827882766
:100D10009F719C012C2BE901E6CFC55AD0E0CE5B38
:100D2000DE4FC881D0E0D0648CCF805C91090E94F6
:100D3000D805EC0186CFCE019927D3FF03C0EC0183
:100D4000D86C7FCFEC01D06C7CCFDF70D06A79CFCC
:100D5000CE01E4E096958795EA95E1F783702C2F14
:100D600026952695237090E2299F90011124382B17
:100D70008C2F8370C1E0D0E002C0CC0FDD1F8A95BC
:100D8000E2F7C22BD32BDC685CCFC1E0D0E002C01D
:100D9000CC0FDD1F2A95E2F730E2939FC0011124AA
:100DA000C82BD92BDA684DCFD82FCC27C46FD06A87
:100DB00048CFDC2FCC27C06FD06A43CF8C2F8F70E9
:100DC0000E94830734E0D695C7953A95E1F7CF7036
:100DD0009C2FEC01D06935CF82389105B1F1B0F488
:100DE0008133910509F475C048F48932910509F4FD
:100DF00069C08A32910509F473C00895853391055D
:100E000009F459C08933910501F10895833E910594
:100E1000A9F138F4803E9105F9F0823E910549F13F
:100E20000895863E9105A9F1873E9105C9F1843E5A
:100E3000910519F52091AE0421FF1FC08091AD04EA
:100E400084FD14C087EE90E008952091AD042370D6
:100E5000A1F080EE90E008952091AD0420FD47C000
:100E60003091AE0430FF09C024FF44C090E080E020
:100E700004C02091AD0422FDF7CF08952091AD0468
:100E800022FD3BC03091AE0430FDE3CF24FFF5CF0F
:100E9000EDCF2091AD0423FFF0CF24FDE7CFD2CFDB
:100EA0002091AD0423FD2CC03091AE0431FFEECF74
:100EB00084EE90E008952091AD0425FFDECF89E215
:100EC00090E008952091AD0425FFD7CF85E390E011
:100ED00008952091AD0426FFD0CF8AE290E00895D6
:100EE0002091AD0426FFC9CF81E390E0089589E306
:100EF00090E0089583EE90E0089582EE90E00895EA
:100F000086EE90E008959091AD0492FF06C0282FE0
:100F100028712830F9F4877F846093FF06C0282F5A
:100F200028712831F1F4877E84612091AE0420FF7E
:100F300006C0382F38713830D9F4877F816021FF9F
:100F400006C0282F28712831D1F4877E816194FD55
:100F5000877E0895282F24712430F9F68B7F8860CE
:100F6000DCCF282F2471243101F78B7E8861DDCFFF
:100F7000382F3171313019F78E7F8860E0CF282FFC
:100F80002171213121F78E7E8861E1CF08950C9483
:100F9000C60708950C94C907E82FF0E0EE0FFF1F75
:100FA000E556FD4F808191810895089580EA8A95E4
:100FB000F1F70895CF93DF93A2E5B1E046E551E064
:100FC000C1E0D0E08D91E82FE295EF70F0E061A1F3
:100FD0008F709E0101C0220F8A95EAF7922F90959B
:100FE000962391A382A1822B82A34A175B0751F714
:100FF000A5E4B1E042E551E0C1E0D0E08D91E82FF9
:10100000E295EF70F0E061A18F709E0101C0220FA8
:101010008A95EAF7922F9095962391A382A1822B2D
:1010200082A34A175B0751F7109294021092930221
:1010300010929C0210929B021092960210929502BE
:1010400010929E0210929D021092980210929702A6
:101050001092A00210929F0210929A02109299028E
:101060001092A2021092A10284E00E94C208DF91B5
:10107000CF910C945B058F929F92AF92BF92CF92CB
:10108000DF92EF92FF920F931F93CF93DF9382E54E
:10109000E82E81E0F82E03E912E0912CAA24A39413
:1010A000B12CF70181917F01C82FC295CF70D0E09C
:1010B00099A18F70650101C0CC0C8A95EAF7892F40
:1010C0008C2989A38AA18C2C809488218AA30E94D0
:1010D000D607E5E4F1E050E040E030E020E0619147
:1010E000A62FA295AF70B0E090968C9190E06F70B3
:1010F00002C0959587956A95E2F780FD3EC0C501CF
:10110000042E02C0880F991F0A94E2F7282B392B6E
:101110004F5F5F4F4D30510511F789A1882289A299
:101120008AA1C82ACAA2F8018081918128173907AB
:1011300039F13183208381E0982A0E5F1F4FF6E555
:10114000EF16F1E0FF0609F0ACCF292D44E06BE982
:1011500072E083E992E00E94C3080E946305892D32
:10116000DF91CF911F910F91FF90EF90DF90CF9083
:10117000BF90AF909F908F90089590E080E0C6CF91
:1011800080E0DACF0895FF920F931F93CF93DF9300
:10119000F82E092F162FD72FC42F222349F081E0D4
:1011A0008093A2010E94591C9093A1018093A001F9
:1011B0008091A2018823A1F08091A0019091A101CA
:1011C0000E94711C069760F0EF2DF02FA12FBD2F0C
:1011D00090E080E0D0E08C179D0744F01092A201CF
:1011E000DF91CF911F910F91FF900895219131913F
:1011F0002D933D930196EFCF0C94CC0454985C9AB8
:1012000056985E9A89B1829581704E9905C090E09A
:10121000892B8093A501089592E0FACFE091A50172
:10122000EE0FEE0FE093A50149B144FB882780F94A
:1012300049B146FB222720F946FF02C022E030E0F8
:10124000822BE82BE093A501EF70F0E0EA5AFE4F05
:1012500080819091A401890F8093A40184304CF087
:101260008091A3018F5F8093A30160E080E00E94E2
:10127000FC088091A4018D3F4CF48091A301815022
:101280008093A30161E080E00E94FC088091A401AA
:10129000837887FF03C081508C6F8F5F8093A40198
:1012A0000895CF92DF92EF92FF920F931F93CF9307
:1012B000DF936C017B0164E670E088E70E94590EC1
:1012C000EC0197FD12C010E000E0F601E00FF11F05
:1012D000849164E670E00E94B50EEC01892B29F43C
:1012E0000F5F1F4F0E151F0581F70E94380FCE01AB
:1012F000DF91CF911F910F91FF90EF90DF90CF90F2
:101300000895E3EAF2E080E092E0DF019C011D92A3
:1013100021503040E1F7F093A804E093A7048FEF49
:101320009FEF9093D2018093D10108950E94D6043B
:101330008093CD0180FD0FC080E88093CC010E9496
:10134000530E6DE070E086E892E00E945109892B0F
:1013500021F080E0089580E2F0CF8091CD0163E03C
:1013600070E081FD26C083E892E00E945109892B3C
:1013700081F76DE070E083E792E00E945109892BCC
:1013800041F70E94651C605A75418F4F9F4F6093D3
:10139000A3047093A4048093A5049093A6040E94D0
:1013A000810981E08093D0018093CF011092CE011A
:1013B000089580E892E0D9CF2091CC0136E0839F58
:1013C000C0011124629F800D911D1124811522E01E
:1013D000920714F090E080E08D559D4F9093A80403
:1013E0008093A70408952091A7043091A8042D5953
:1013F00032404091CC01642F70E0C9010E947E23ED
:10140000481B463010F4240F311D211582E03807A7
:1014100010F030E020E02D553D4F3093A80420938C
:10142000A70408951F93CF93DF93162F8A3031F4CA
:1014300081E0DF91CF911F910C948C0A8D3011F4D3
:1014400080E0F7CFC091A704D091A80496E0FE01F8
:10145000A6EAB1E001900D929A95E1F7803EC8F0BE
:1014600086E0FE0111928A95E9F711111EC0C09124
:10147000A704D091A80446E050E0BE0186EA91E0BE
:101480000E94A123892BF9F4DF91CF911F910C9435
:10149000F309F6E08F9FB00111246D567D4F46E0B1
:1014A00050E0CE010E949823E0CFE091A704F09194
:1014B000A8049F012A5F3F4F2E173F07C1F280818A
:1014C00080958193F9CFC35AD240CE0125E09695FD
:1014D00087952A95E1F721E030E0A90102C0440F89
:1014E000551F8A95E2F7CA014091D1015091D2016E
:1014F000842B952B269645E0D695C7954A95E1F71E
:1015000002C0220F331FCA95E2F7822B932B9093D0
:10151000D2018093D101B8CFCF93382FE091A704A7
:10152000F091A804E35AF2402091CC01622F70E0C0
:10153000CF010E947E23281B822F332369F066E0AF
:101540000E947223C82FC15010F4CF91089560E01B
:1015500080E20E94120AF7CF9F01280F311D21154A
:10156000324018F080E0F0E0E0E08E0F9F2F911DF8
:101570008D559D4F9093A8048093A704E6CF1F93A9
:10158000CF93DF93EC01162FFE018491811104C0EB
:10159000DF91CF911F910895612F0E94120A219629
:1015A000F3CF0E94BF0A81E00C948C0A0E94651C54
:1015B000605A75418F4F9F4F6093A3047093A404AA
:1015C0008093A5049093A6048091CF01811108C057
:1015D00062E070E081E792E00E945109892B19F0E6
:1015E0008091CF01089581E08093CF01F9CF2F92B0
:1015F0003F925F926F927F928F929F92AF92BF9233
:10160000CF92DF92EF92FF920F931F93CF93DF93CE
:101610002091D1013091D2012115310531F0809115
:10162000CE0161E070E0882399F0DF91CF911F91A6
:101630000F91FF90EF90DF90CF90BF90AF909F9071
:101640008F907F906F905F903F902F9008958F5F65
:10165000082F10E01B01082E02C0220C331C0A9434
:10166000E2F7A10142235323452B89F39091CD0149
:1016700090FD44C08295880F807680930201980186
:10168000369527953695279520930501815E8093A1
:1016900003011092060124E630E047E050E060E0EC
:1016A00071E088E70E94E40E892B09F0BECFA80103
:1016B00025E0440F551F2A95E1F78091CD0180FD6B
:1016C0002BC04D555D4F04E610E020E230E060E4B1
:1016D00088E70E940B0F892B09F0A7CF0E94D60A3A
:1016E000E101C095D0958091D1019091D201C8239C
:1016F000D923D093D201C093D10197CF880F880FFF
:10170000880F8093020110920501895F8093030185
:1017100083E080930601BFCFECEAF1E080E2DF01D5
:101720001D928A95E9F7AAE6B1E006E611E08EE699
:10173000C82E81E0D82E97E0592E772473948D918E
:10174000E80129918E01240F352F311D2D553D4F74
:10175000E82FF0E0E455FE4F90E080E0652C681A39
:10176000872C082E01C0880C0A94EAF77901A12C75
:10177000E701B9907E01B820662D6A196770962E30
:10178000062E000C770BDB2D01C0DD0F9A94EAF7D3
:101790007195619571096770772701C0B6946A9554
:1017A000EAF7BD2A6081962E9B289082A39468E078
:1017B000A612DECF019631968830910579F6CA16C9
:1017C000DB0609F0BCCF04E610E020E230E04CEA92
:1017D00051E07DCF8091CF01882369F062E070E015
:1017E0008FE692E00E945109892B19F08091CF0178
:1017F00008951092CF018091CF0191E0892708953B
:101800000F931F938091D001882301F160E080E065
:101810000E94DC090E94D8040E94F70A8091CF013F
:101820008823A1F00E94651C0091A3041091A404D8
:101830002091A5043091A604601B710B820B930BC1
:1018400097FD04C01F910F910C94EA0B1F910F910B
:101850000895AF92BF92CF92DF92EF92FF920F93D3
:101860001F93CF93DF937C015B01C42FD22FFC0128
:1018700082818823F9F04093D5010E94591C9093EE
:10188000D4018093D30180E28C0F883008F061C0CE
:10189000C77081E001C0880FCA95EAF7DF91CF9148
:1018A0001F910F91FF90EF90DF90CF90BF90AF907E
:1018B0000C9489111091D501141340C08091D3016B
:1018C0009091D4010E94711C6C01B701C5010E9466
:1018D0006C16C816D90690F5C0E2CD0F1D17B9F0E9
:1018E00080E2810F883040F4177081E001C0880FDA
:1018F0001A95EAF70E949011C83048F481E09D2FB4
:10190000977001C0880F9A95EAF70E948911802F7D
:101910000E947611C830E8F4D77081E001C0880FCA
:10192000DA95EAF7DF91CF911F910F91FF90EF9039
:10193000DF90CF90BF90AF900C94901180E28C0F0D
:10194000883038F4C77081E001C0880FCA95EAF783
:10195000E9CFDF91CF911F910F91FF90EF90DF9032
:10196000CF90BF90AF9008950F939C01CB01233F80
:101970004CE5340759F1A8F4283DFCE53F0701F197
:10198000293D4CE53407D1F1273D3C4591F406E271
:1019900021EE41EE67ED7CE50E94290C80E00F917D
:1019A0000895253FFCE53F07E9F0B0F0263F3C45B0
:1019B000F9F0FC018281882339F11092D501EFCF33
:1019C00007E225EE45EE68ED7CE5E6CF06E221EE86
:1019D00040EE63EF7CE5E0CF07E225EE44EE64EFF6
:1019E0007CE5DACF06E221EE42EE65EF7CE5D4CF6E
:1019F00007E225EE46EE66EF7CE5CECF08E221E079
:101A000045EE69ED7CE5C8CF81E0C9CFCF93DF9388
:101A1000EC01FB018281882309F419C1C230FCE585
:101A2000DF07C0F1C6319CE5D90730F09E012A5F7F
:101A30003C452930310570F50E94871A9093AE0419
:101A40008093AD04C031ECE5DE0709F4CFC008F0A7
:101A50005BC0C8308CE5D80709F4B6C088F5C4303F
:101A6000ECE5DE0709F4A8C0C0F4C2308CE5D80765
:101A700009F49CC08091AD048260C330DC4509F458
:101A800098C08091AD049091AE040E94951A0E9476
:101A9000F61380E0DF91CF9108958091AD048061CD
:101AA000C630ECE5DE0709F484C08091AD0488609F
:101AB000C730DC4508F47DC08091AD04806279C0F8
:101AC000CC308CE5D80709F489C070F48091AD045E
:101AD0008C60CA30ECE5DE0709F46BC008F478C00E
:101AE0008091AD048E7F65C0CE308CE5D80709F4B7
:101AF00079C08091AD048B7FCF30DC4508F459C0AC
:101B00008091AD048F7E55C0CB3FECE5DE0709F434
:101B100057C030F5C3318CE5D80709F46FC078F4AD
:101B2000C131ECE5DE0709F465C0C231DC4509F0DE
:101B3000A8CF0E94F6138091AD048F773AC0C531CB
:101B40008CE5D80709F462C008F476C08091AE0431
:101B50008160CA3FDC4509F094CF8093AE0491CFF9
:101B6000CF3FFCE5DF0709F44DC088F48091AE0457
:101B70008D7FCD3F9CE5D90781F38091AE048E7FA8
:101B8000CE3FDC4550F38091AE048360E6CFC13098
:101B9000FDE5DF0709F459C008F444C080E0C23015
:101BA000DD4509F06ECF0E94131B6BCF8091AD0411
:101BB00081608093AD0465CF8091AD048460F9CFDE
:101BC0008091AE048260C9CF8091AD048064F1CF72
:101BD0000E94F6138091AD048068EBCF8091AD0434
:101BE0008D7FE7CF8091AD04877FE3CF8091AD04F7
:101BF0008F7DDFCF8091AD048F7BDBCF8091AD04F3
:101C0000837FD7CF8091AE048C7FA7CF8091AD0426
:101C100082FB992790F921E0922790FB82F990FBB3
:101C200083F9C7CF8091AE04982F909591708E7FE5
:101C3000892B90FB81F991CF0E94F6139091AD040E
:101C4000892F97FB87F98058B4CF81E0ACCF81E032
:101C500021CFCF93DF93EB0186319C4511F50E9494
:101C600078199A81992399F08A7A91E009F490E0A1
:101C70009093D601811109C089E20E9453190E94F4
:101C8000C41980E0DF91CF91089585E3F6CF80916C
:101C9000D601811104C089E20E945A19F0CF85E370
:101CA000FBCF81E0EFCF1092B9008CE08093B800B9
:101CB0000895EF92FF920F931F93CF93DF93182F06
:101CC000EB011092BC0084EA8093BC000E94591C76
:101CD0007C018091BC0087FF27C08091B900887F7C
:101CE000883029F08091B900887F8031D9F5109330
:101CF000BB0084E88093BC000E94591C8C01809139
:101D0000BC0087FF24C02091B900287F90E080E0CC
:101D10002831B1F081E090E0203411F490E080E0CF
:101D20009195819591090CC0CF3FDC0791F20E94FB
:101D3000591C8E199F098C179D0758F28EEF9FEF43
:101D4000DF91CF911F910F91FF90EF900895CF3FBA
:101D5000DC07A9F20E94591C801B910B8C179D0770
:101D600070F2ECCF8FEF9FEFEBCF0F931F93CF93DA
:101D7000DF93EB018093BB0084E88093BC000E945A
:101D8000591C8C018091BC0087FF11C02091B900C3
:101D9000287F81E090E0283211F490E080E0919576
:101DA00081959109DF91CF911F910F910895CF3FB8
:101DB000DC0741F30E94591C801B910B8C179D0777
:101DC00008F38EEF9FEFEECFCF92DF92EF92FF926C
:101DD0000F931F93CF93DF936B018A017901B901B0
:101DE0000E94590EE6010C0D1D1DC017D10761F4AC
:101DF00024E92093BC00DF91CF911F910F91FF90B8
:101E0000EF90DF90CF90089597FDF2CFB7018991C1
:101E10000E94B50EEACFCF92DF92EF92FF920F931E
:101E20001F93CF93DF93C62F6A017901B8010E94F7
:101E3000590E97FD0CC0B8018C2F0E94B50EE6011B
:101E4000EC0CFD1CCE15DF0511F097FF0CC024E94A
:101E50002093BC00DF91CF911F910F91FF90EF90E5
:101E6000DF90CF900895B80189910E94B50EEACF16
:101E700084E98093BC0008959093DC018093DB019A
:101E80000895E091DB01F091DC01309721F00190A1
:101E9000F081E02D099480E00895E091DB01F0915C
:101EA000DC01309799F020911301222359F0209101
:101EB000AD0427FF07C0DC012C9111962C931197DC
:101EC00025E02C930280F381E02D09940895209160
:101ED000D9013091DA012817390771F09093DA01AE
:101EE0008093D901E091DB01F091DC01309721F082
:101EF0000680F781E02D099408952091D701309153
:101F0000D8012817390771F09093D8018093D70131
:101F1000E091DB01F091DC01309721F00084F18544
:101F2000E02D0994089585B7806885BF85B78068DE
:101F300085BF0895089508950C949A0F08950C9400
:101F40009E0F0E94930F0E949B0F0C949C0F81E0A8
:101F500008950C94A70F0E94501C0E94DA0780E09D
:101F60000E9496090E94B51C0E94FE080C949F0FC7
:101F70008F929F92AF92BF92CF92DF92EF92FF9299
:101F80000F931F93CF93DF93CDB7DEB72A970FB68A
:101F9000F894DEBF0FBECDBF0E943B08982E0E9472
:101FA000A90F882309F476C05EEDA52E51E0B52E69
:101FB00010E000E0802E802F0E94CC076C01F5011C
:101FC000E190F1905F01E816F90609F45DC0809197
:101FD0006F0281FD0E94D50797012C253D2580E0E9
:101FE000EE24E394F12CA9014E215F21452B09F445
:101FF00045C08E838F82CE20DF2081E0CD2809F47A
:1020000080E088870E94591C8160782F9A87898791
:102010004E815F8168858A850E946E10000F111FB6
:10202000F801E252FE4F80819181E826F926F18283
:10203000E0820E940E090E94000C91100E94D60AB4
:102040000E94410F9091DD018917A9F10E94410F73
:102050008093DD012A960FB6F894DEBF0FBECDBF88
:10206000DF91CF911F910F91FF90EF90DF90CF9074
:10207000BF90AF909F908F900C946C058F5FEE0C8B
:10208000FF1C8D3009F0AFCF0F5F1F4F04301105DB
:1020900009F090CF8FEF89838A831B820E94591C9D
:1020A0008160782F9D838C8349815A816B818D81DA
:1020B0000E946E10BECF2A960FB6F894DEBF0FBEF8
:1020C000CDBFDF91CF911F910F91FF90EF90DF90E7
:1020D000CF90BF90AF909F908F900895CF93DF9354
:1020E000CDB7DEB72B970FB6F894DEBF0FBECDBFCE
:1020F0004F83588769877A878B871E821D8285E088
:10210000FE013796DE01119601900D928A95E1F756
:1021100049815A816B817C818D819E812B960FB67E
:10212000F894DEBF0FBECDBFDF91CF910C946F1638
:10213000FC01808191810C942519CF93C82F8823AD
:1021400009F483C08238C1F40E94410F81FD7DC033
:1021500089E30E9453190E94C4192FEF81EE94E085
:10216000215080409040E1F700C0000089E30E94C8
:102170005A19CF910C94C4198338A1F40E94410FCD
:1021800080FD63C083E50E9453190E94C4192FEF9C
:1021900081EE94E0215080409040E1F700C00000C3
:1021A00083E5E5CF8438A1F40E94410F82FD4DC044
:1021B00087E40E9453190E94C4192FEF81EE94E026
:1021C000215080409040E1F700C0000087E4CFCF6D
:1021D0008CEF8C0F813A90F46C2F809107019091D5
:1021E00008010E942C1B882329F08C2F0E945A1969
:1021F0000E94C4198C2F0E945319BBCF80E28C0F10
:10220000883048F4C77081E001C0880FCA95EAF7AA
:102210000E947B19AECFEBE5EC0FE33040F4F0E029
:10222000E456FE4F808190E0CF910C94670FC85A1E
:10223000C73158F4EC2FF0E0EE0FFF1FE259FE4FCC
:1022400080819181CF910C947D0FCF910895882347
:1022500009F44BC0823871F40E94410F81FF45C0E0
:1022600089E30E9453190E94C41989E30E945A19F4
:102270000C94C419833859F40E94410F80FF35C073
:1022800083E50E9453190E94C41983E5EFCF843877
:1022900059F40E94410F82FF28C087E40E9453191D
:1022A0000E94C41987E4E2CF9CEF980F913AF0F2B4
:1022B00090E2980F983050F4877091E001C0990F28
:1022C0008A95EAF7892F0E948119D2CF9BE5980F52
:1022D000933020F490E080E00C94670F885A8731A7
:1022E00020F490E080E00C947D0F0895CF93C82FE8
:1022F0000E949D10C93349F42FEF87EE93E02150DF
:1023000080409040E1F700C000008C2FCF910C94EA
:102310002711882321F00E947B190C94C419089579
:10232000882321F00E9481190C94C4190895BF924A
:10233000CF92DF92EF92FF920F931F93CF93DF9391
:102340006C01D62FC72FFC01058102950F701281F9
:1023500011110E9498190E947119E82E882391F09A
:102360001123D1F08C2F807F803421F080E28D0FFB
:10237000883090F082E00E940F1A0E94711991E05B
:10238000E82EE926BC2EB2949FE0B922EB2DF0E0B6
:10239000EE50FC4D0C949223E12CF4CF0C2F0F70D7
:1023A000C07F11F00295007F1123A9F0002359F09E
:1023B00080E28D0F883010F0D11109C0802F0E946B
:1023C0007B190E94C4198D2F0E949D1014C0802F6C
:1023D0000E948B19F6CF8D2F0E942711002359F0F0
:1023E00080E28D0F883010F0D1112CC0802F0E9418
:1023F00081190E94C4192B2D2850330B243031052C
:1024000020F40E94410F0E946C05EE2009F493C154
:102410000E946D1980FD8FC1F60112820E9467191A
:102420000E94F317C6010E94BC130E946719DF9136
:10243000CF911F910F91FF90EF90DF90CF90BF90C1
:102440000C941418802F0E949119D3CFFC2FFF7089
:10245000FF2EC07FC03219F0F29480EFF822DD2306
:1024600069F0D13049F1112391F1002351F1F601C6
:10247000858180FFA8CF8F70858323C0112381F0D1
:10248000011106C00E94AB198F290E948911B3CF98
:102490000130C1F70E94AB198F290E94B119ABCF4F
:1024A000011106C00E94BA198F2D0E949011A3CF6E
:1024B000013009F4A0CFF6CF112329F0063008F03F
:1024C0009ACF8F2DE2CF053008F095CFEDCF0023C6
:1024D00059F3D93349F4FFEF27EE33E0F1502040B0
:1024E0003040E1F700C000008D2F0E94271183CFFC
:1024F0008C2F86958695837069F0813009F07BCFAB
:102500008D2F9C2F9370111102C090E080E00E94EB
:102510007D0F71CF8D2F9C2F9370111102C090E011
:1025200080E00E94670F67CF8C2F837009F041C055
:10253000111161CF4D2F429546954770440F440FBE
:102540000D2F0F7010E030E020E0042E04C0000FCB
:10255000111F221F331F0A94D2F760E070E0CB01F5
:10256000D4FF0FC06FE070E080E090E004C0660F21
:10257000771F881F991F4A95D2F7609570958095AF
:102580009095C695C695C370602B712B822B932BAB
:10259000C23049F058F4C13019F00E94A5172BCF72
:1025A0000E94931728CF0E94B71725CF0E9491173A
:1025B00022CF8695112311F08C2F8170882309F486
:1025C0001ACF4D2F429546954770440F440F0D2F5B
:1025D0000F7010E030E020E0042E04C0000F111F47
:1025E000221F331F0A94D2F760E070E0CB01D4FFC2
:1025F0000FC06FE070E080E090E004C0660F771FCE
:10260000881F991F4A95D2F760957095809590958F
:10261000C695C695C370602B712B822B932BC2304D
:1026200049F058F4C13019F00E946A18E4CE0E94B3
:102630005818E1CE0E947C18DECE0E94CD17DBCE6A
:10264000CF70112329F08C2F0E94F3178D2F1DCFEF
:102650008D2F0E9490118C2F0E941418CCCED23F47
:1026600089F160F4D03FC9F0D13F29F1112309F479
:1026700042C00111A8CE8C2F8F7121C0D33F39F1F8
:10268000D43FA1F7112369F1CF718C2F0E94F3176A
:1026900063E08C2F0E94FA19AECE112341F0053071
:1026A00008F0A9CE8C2F8F710E943718A4CE063067
:1026B00008F0A1CEF7CF8C2F8F71112369F20E9401
:1026C000F31799CE8C2F8F711123C9F3C5CF112326
:1026D00029F08C2F8F710E94DE178DCE0E94D917A2
:1026E0008ACE81E00E940F1A023008F484CE82E084
:1026F0000E940F1A80CE002359F0D93309F0F4CE8E
:102700008FEF97EEE3E081509040E040E1F7EACEB2
:102710008C2F8F71A1CF4C2F4F706D2FC6010E944F
:10272000C0050E94091767CE4C2F4F706D2FC60150
:102730000E94C30560CEDF91CF911F910F91FF9052
:10274000EF90DF90CF90BF9008950F931F93CF939A
:10275000DF93EC01688179818A810E942F198C01B5
:102760000E948E180E949017B801CE01DF91CF9180
:102770001F910F910C949711CF93DF93EC018B81F4
:102780009C81892B29F08881998189238F3F59F475
:10279000DF91CF910895CE010E94A513CE01DF9164
:1027A000CF910C945005CE010E9484058111F3CF86
:1027B0000E947119882361F38A81882349F382E09A
:1027C000DF91CF910C940F1A0E9498190E94A819BA
:1027D0000E94C41990E080E00E94670F90E080E0C2
:1027E0000C947D0F0E9461190C94E4130E948819C7
:1027F0000C94F213E92FE295EF70E250EE3070F492
:10280000F0E0EE5FFB4D0C949223803F19F020F432
:10281000883E20F481E00895843FE1F380E008954C
:10282000883EC0F3813FD1F7F5CF93FB882780F92D
:1028300008950E9425190C94FA13CF93DF9300D0CA
:1028400000D00F92CDB7DEB70F900F900F900F9082
:102850000F90DF91CF910895CF93DF9300D000D0F8
:1028600000D0CDB7DEB726960FB6F894DEBF0FBE08
:10287000CDBFDF91CF9108951F93CF93DF93C09188
:10288000E70116E08091E8018C1304C0DF91CF913D
:102890001F910895D0E01C9FF0011D9FF00D1124A1
:1028A000E751FE4F4081518162817381848195811E
:1028B0000E942C142196C770E5CF409119025091C7
:1028C0001A0260911B0270911C0280911D0290916E
:1028D0001E020C942C141F93CF93DF9380911E0241
:1028E000807FA9F480911B02882389F08091E70101
:1028F000C091E8016091190270911A02A0911C0226
:10290000B0911D02D62FD72316E0C81304C0DF9163
:10291000CF911F91089590E0109711F0DF3F19F4C7
:1029200001968770F2CF189F9001199F300D1124E6
:10293000F901E751FE4F41814713F2CF4081461321
:10294000EFCF42814111ECCF438154814A1B5B0B95
:10295000483C510528F780911E028F70806180935A
:102960001E02F901E251FE4F80818F7080618083E9
:1029700089E192E00E94BC13DF91CF911F910C94EA
:102980003C14AF92BF92CF92DF92EF92FF920F93DF
:102990001F93CF93DF93CDB7DEB761970FB6F8944F
:1029A000DEBF0FBECDBF8C0185E0F801DE011D96B4
:1029B00001900D928A95E1F7F80140815181E28002
:1029C00089E1C82E82E0D82E60911C0270911D0210
:1029D0006115710509F461C19091190220911A02E3
:1029E000892F82238F3F09F458C1A380B480F090CF
:1029F0001B02F501E61BF70BFF2009F4FCC08091D8
:102A00001E02382F307FE83CF10508F0B2C03111CA
:102A100079C0FE2C251323C0941321C0E1101FC0E0
:102A20008F70806180931E020E945D14C6010E9417
:102A3000BC1380911E02F80185838F2D61960FB61D
:102A4000F894DEBF0FBECDBFDF91CF911F910F91E4
:102A5000FF90EF90DF90CF90BF90AF900895AB289C
:102A600029F0842F85238F3F09F033C180E0F82FB0
:102A7000F170DF2E80FF3CC08091E7012091E801DA
:102A800036E0821315C04D875E878D859E850E9436
:102A90002519292F22952F702230F0F0243018F5B7
:102AA0009F70F1F0F8019581907FD1F4D12C1EC078
:102AB00090E0389FF001399FF00D1124E751FE4F4F
:102AC0006181651306C06081641303C062816E1169
:102AD0000FC001968770D5CF9F7011F0882331F316
:102AE000805E883018F3C8010E94BC13FD2CA5CF6E
:102AF000EE2009F4A2CF80911E02816080931E0215
:102B0000F12C9BCF251306C0941304C0F801EE20CE
:102B100009F48DC04D875E878D859E850E941914AE
:102B2000882319F1EE2009F180911E02803270F0A5
:102B30002091190230911A0238872F831986BB869B
:102B4000AA868C87CE0107960E94BC1386E0F80106
:102B5000A9E1B2E001900D928A95E1F70E946B1411
:102B60000E945D14FF24F39468CFC8010E94BC1337
:102B7000F9CF311113C07A2DB98AA88A6E2D8989AF
:102B80000E941D1489E192E00E94BC1386E0F601C8
:102B900011928A95E9F70E945D14B2CF25130FC0F8
:102BA00094130DC0E1100BC0F8018583C8010E9489
:102BB000BC1386E0F60111928A95E9F73ECF4D8766
:102BC0005E878D859E850E941914882371F2EE2000
:102BD00061F280911E02803208F4B8CF2091190270
:102BE00030911A023A8329831B82BD82AC828E8384
:102BF000CE010196A9CFE83CF10508F041C0FE2CBA
:102C0000EE2009F4B2CF25132AC0941328C0809176
:102C10001E0280FD1BC0982F907FC1F0F8018583B4
:102C2000903F31F0982F907F905F8F70892B858334
:102C3000C8010E94BC1386E0F801A9E1B2E001904E
:102C40000D928A95E1F70E945D14F7CE86E0F801B7
:102C5000A9E1B2E001900D928A95E1F7EECE4D87A1
:102C60005E878D859E850E94191481116FCF80919A
:102C70001E02816080931E02C8010E94BC13DDCE3B
:102C80007A2DB98AA88A6E2D89890E941D1486E042
:102C9000F60111928A95E9F7D6CFEE2009F465CFB7
:102CA0004D875E878D859E850E941914F82E882396
:102CB00009F45BCF86E0F801A9E1B2E001900D9242
:102CC0008A95E1F789E192E00E9498100E946B14C6
:102CD000BACF81E08E25CBCE88EC90E008951F938B
:102CE000CF93DF93CDB7DEB72C970FB6F894DEBF46
:102CF0000FBECDBF4F83588769877A878B879C87A4
:102D0000CE0107960E94C114882369F08A859B85AD
:102D1000892B39F04F815885842F85238F3F09F007
:102D200071C016E05FC086E0FE013796DE011196A5
:102D300001900D928A95E1F78A859B85892B89F30D
:102D40008F81988589238F3F61F32091E80130E0DE
:102D5000C9010196877099274091E7014817190624
:102D600071F40E94F6131092E8011092E70186E0D8
:102D7000E9E1F2E0DF011D928A95E9F7D2CF96E012
:102D8000929FD001939FB00D1124A751BE4FFE0119
:102D9000319601900D929A95E1F78093E8010E9497
:102DA0003C14BFCF819FC001112487519E4F0E94C8
:102DB000C1148823E9F0E091E7011E9FF00111247E
:102DC000E751FE4F408151816281738184819581F9
:102DD0000E942C148091E70190E00196877099275A
:102DE0008093E7018091E7019091E8018913DACFA0
:102DF0002C960FB6F894DEBF0FBECDBFDF91CF91FA
:102E00001F91089569857A858B859C850E942C1475
:102E100088CFEF92FF920F931F93CF93DF938C0194
:102E2000892B81F0F12CEE24E394E8012196F8013E
:102E30008491843770F4843008F05FC08130B1F041
:102E40008230A1F1DF91CF911F910F91FF90EF9010
:102E50000895853709F44CC008F43DC09CE7980FED
:102E6000903780F78F770E94271149C00E5F1F4F60
:102E7000FE01849190E2980F983060F48770FE2DE7
:102E800001C0FF0F8A95EAF78F2F0E949B190E94BD
:102E9000C41902C00E949D108F2D815030F2EFE9BD
:102EA000FFE03197F1F700C00000F7CF0E5F1F4F32
:102EB000FE01849190E2980F983050F48770FE2DB7
:102EC00001C0FF0F8A95EAF78F2F0E94A119DFCF6B
:102ED0000E942711E1CF0E5F1F4FFE01C491C15028
:102EE000D8F28FE99FE00197F1F700C00000F7CF1B
:102EF0000E5F1F4FFE01F490CFCF0E949D108E01F8
:102F0000CBCF08950C9481170E94821760934602DC
:102F10007093470280934802909349020C94E41303
:102F200008950C9484170F931F93009146021091FB
:102F300047022091480230914902602B712B822B6D
:102F4000932B1F910F910C9484170F931F93009153
:102F500046021091470220914802309149026023B5
:102F60007123822393231F910F910C9484170F9345
:102F70001F93009146021091470220914802309120
:102F8000490260277127822793271F910F910C9484
:102F900084170C9481170C94C9170E94CB17609367
:102FA00042027093430280934402909345020C9432
:102FB000E41360E070E0CB010C94CD170F931F93E6
:102FC00041E050E060E070E08A019B0104C0000F26
:102FD000111F221F331F8A95D2F7C901B8011F9113
:102FE0000F910C94CD170F931F9341E050E060E0D8
:102FF00070E004C0440F551F661F771F8A95D2F7F3
:103000008091420290914302A0914402B091450206
:103010008A019B01082B192B2A2B3B2BC901B801D4
:103020001F910F910C94CD170F931F9341E050E027
:1030300060E070E004C0440F551F661F771F8A953B
:10304000D2F7CB01BA01609570958095909500916B
:1030500042021091430220914402309145026023C4
:103060007123822393231F910F910C94CD170F93FB
:103070001F9341E050E060E070E004C0440F551F32
:10308000661F771F8A95D2F7809142029091430282
:10309000A0914402B09145028A019B01082719279B
:1030A0002A273B27C901B8011F910F910C94CD1716
:1030B0000F931F930091420210914302209144020A
:1030C00030914502602B712B822B932B1F910F9116
:1030D0000C94CD170F931F9300914202109143025D
:1030E000209144023091450260237123822393236F
:1030F0001F910F910C94CD170F931F9300914202D3
:1031000010914302209144023091450260277127BB
:10311000822793271F910F910C94CD1708952DE0CE
:10312000929F800D1124982F977041E001C0440FA9
:103130009A95EAF786958695869595E0899FF001A0
:103140001124E15EFD4F90E080E070E05191DF01DD
:1031500011979B01082E02C0369527950A94E2F735
:10316000217021952527242325272C93019685302E
:10317000910561F708952DE0929F800D1124982FFD
:10318000977086958695869525E0829FF00111249B
:10319000E15EFD4F50E040E080E0219130E0092EFB
:1031A00002C0369527950A94E2F721703327042E42
:1031B00001C0220F0A94EAF7822B4F5F5F4F453020
:1031C000510559F70895BF92CF92DF92EF92FF9287
:1031D0000F931F93CF93DF938C01C0904202D09046
:1031E0004302E0904402F0904502809146029091A3
:1031F0004702A0914802B0914902C82AD92AEA2A76
:10320000FB2ACFE1D0E0BC2ED701C6010C2E04C0B2
:10321000B695A795979587950A94D2F780FD0EC02D
:10322000219788F7B12C8B2DDF91CF911F910F91B2
:10323000FF90EF90DF90CF90BF900895B8018C2F52
:103240000E94E005019761F3EECFCF93DF93EC018D
:103250000E94E318BE01DF91CF910C94E0051F930B
:10326000CF93DF93EB019091E601992331F0CB01ED
:10327000DF91CF911F910C942519882379F0CB0110
:103280000E94E318182F682FCE010E948F18BE01EC
:10329000812FDF91CF911F910C94E005CB010E940B
:1032A000BB18182FF4CF682F809107019091080167
:1032B0000C94AC1B682F80910701909108010C942D
:1032C000B71B80910701909108010C94C21B80915B
:1032D0004A02859585958595089580914A02877063
:1032E000089590914A02977081E009F480E0089572
:1032F00080916E02089590916E02892B80936E02E8
:103300000895809590916E02982390936E0208958F
:1033100010926E02089590916D02892B80936D0238
:103320000895809590916D02982390936D02089571
:1033300010926D02089590916C02892B80936C021B
:103340000895809590916C02982390936C02089553
:1033500010926C02089580914B02089508950C9488
:10336000AE1990914B02981721F080934B020C9468
:10337000AF19089580914B02882329F010924B02D7
:1033800080E00C94AF190895E0910701F0910801D5
:1033900080916E028083E0910701F09108018081A5
:1033A00090916D02892B8083E0910701F0910801D3
:1033B000808190916C02892B808390914B0299239C
:1033C00081F0E0910701F09108018081892B8083D1
:1033D00080910701909108010E94181B81110E94A1
:1033E000BA1980910701909108010C944D0F08952E
:1033F0000C94F71998E0899F90011124622B609337
:103400004A020E94F31780914A0285958595859519
:103410000C94F81910924A0280E00C94F8199091DB
:103420004A028095892380934A02282F277071F4DD
:10343000282F082E000C330B9217130639F08595B0
:10344000859585950E9414180C940A1A0895CF92B8
:10345000DF92EF92FF926C01EE24FF2420E0C11472
:10346000D104E104F10419F0C701B60120E1C72E2F
:10347000D82EE92EFF24C114D104E104F10419F07F
:10348000285FC701B6016B017C0154E0F694E79414
:10349000D794C7945A95D1F7C114D104E104F1042B
:1034A00019F02C5FC701B6016B017C0142E0F69474
:1034B000E794D794C7944A95D1F7C114D104E10495
:1034C000F10419F02E5FC701B6019695879577959F
:1034D0006795672B682B692B09F02F5F822FFF9070
:1034E000EF90DF90CF90089590E080E00E94B623A7
:1034F00021E08C3E9E4F09F020E0822F089582E06B
:1035000090E00C94AE2383E090E00C94AE23CF9334
:1035100084E090E00E94AE23C82F81E290E00E94F8
:10352000AE23982F8C2FCF910895CF93C92F682F5A
:1035300084E090E00E94BC236C2F81E290E0CF9168
:103540000C94BC23AB01BC018FE090E00C94CE2323
:10355000AB01BC0183E190E00C94CE2360E070E00D
:10356000CB010C94A81A60E070E0CB010E94A21A73
:103570000C94AE1A6CEE7EEF90E080E00E94DA23AD
:1035800060E082E090E00E94BC2360E083E090E095
:103590000E94BC23109246021092470210924802E9
:1035A0001092490260E084E090E00E94BC2360E059
:1035B00081E290E00E94BC2360E085E090E00E9400
:1035C000BC2360E086E090E00E94BC236FEF87E0C0
:1035D00090E00E94BC2340E050E0BA0188E090E017
:1035E0000E94CE2360E08DE090E00E94BC2340E08A
:1035F00050E0BA0188E190E00E94CE2360E087E1CC
:1036000090E00E94BC2340E050E0BA018CE190E0E1
:103610000E94CE2360E080E290E00E94BC230C94E4
:10362000B31A0C94BA1A682F8EE090E00C94BC2365
:10363000FC01329680911301882321F08091AD0422
:103640009EE187FF96E080E0915008F40895219173
:103650002223D1F38F5FF8CF662301F1209113016C
:103660002223F1F02091AD0427FF1AC0462F469582
:10367000469546954E3190F4677021E030E002C0E7
:10368000220F331F6A95E2F7840F911DFC0182819E
:1036900090E02823392381E0232B69F480E008950A
:1036A000FC01329608962191261721F0E817F907B8
:1036B000D1F7F4CF81E008959C01FC0132969FEF91
:1036C00080E04191461751F09F3F19F4411101C02C
:1036D000982F8F5F8630A9F79F3F09F40895290F2F
:1036E000311D97FD3A95F90162830895FC013296E8
:1036F00008962191261303C0DF0111971C92E81749
:10370000F907B9F70895E62FE695E695E695EE31C7
:1037100068F4E80FF92FF11D677021E030E001C077
:10372000220F6A95EAF78281822B82830895E62F21
:10373000E695E695E695EE3170F4E80FF92FF11D68
:10374000677021E030E001C0220F6A95EAF720950A
:10375000828128232283089520911301222329F0B6
:103760002091AD0427FD0C94831B0C945C1B2091CD
:103770001301222329F02091AD0427FD0C94971BFF
:103780000C94761BFC01329680911301882351F032
:103790008091AD0487FF06C08EE1DF011D928A95FE
:1037A000E9F7089586E0F9CF089508950C94D51BA4
:1037B0000E94D61B8091B304843049F110927002AC
:1037C00088E190E020E40FB6F894A895809360001B
:1037D0000FBE2093600080E00E946C050E94D61B03
:1037E00083B7817F846083BF83B7816083BF789410
:1037F000889583B78E7F83BF0FB6F894A895809184
:103800006000886180936000109260000FBE089590
:103810000895CF930E94D41B0E943B080E94081C6D
:10382000C0E08C2F0E94CC07892B31F4CF5FC430CD
:10383000C1F780E0CF91089581E0FCCF08950C940A
:103840001E1C0E94F6130E94410F0E946C050C94EE
:103850001F1C1F921FB61F9211248F939F93AF932B
:10386000BF9380917002811113C08091A90490913F
:10387000AA04A091AB04B091AC044196A11DB11D66
:103880008093A9049093AA04A093AB04B093AC04D2
:10389000BF91AF919F918F911F901FBE1F90189560
:1038A00082E084BD93E095BD9AEF97BD80936E0052
:1038B00008952FB7F8948091A9049091AA04A0913B
:1038C000AB04B091AC042FBF08952FB7F89460916A
:1038D000A9047091AA048091AB049091AC042FBF0D
:1038E00008959C014FB7F8948091A9049091AA047F
:1038F000A091AB04B091AC044FBF821B930B089511
:1039000078941F921FB61F9211248F939F93AF93A9
:10391000BF938091A9049091AA04A091AB04B091A7
:10392000AC040196A11DB11D8093A9049093AA0433
:10393000A093AB04B093AC04BF91AF919F918F91D2
:103940001F901FBE1F90189587E797E79093010877
:103950008093000888E19AE00FB6F894A8958093C8
:1039600060000FBE90936000FFCF0E94741A811117
:1039700002C00E94111B0E947F1A80936F020E9456
:10398000871A9093AE048093AD040E94831A682F27
:1039900070E090E080E00E94911760914202709187
:1039A000430280914402909145020C94CB17809180
:1039B000910208950895CF93DF9300D00F92CDB771
:1039C000DEB79091B304943019F589837B836A83C1
:1039D00082E08093E9008FEF9091E800815095FD9F
:1039E00006C095ED9A95F1F700008111F5CF809111
:1039F000E80085FF0DC050E040E063E070E0CE01DC
:103A000001960E94E11E8091E8008E778093E80085
:103A10000F900F900F90DF91CF910895BC0184E03B
:103A20000C94DB1CBC0183E00C94DB1CCF93DF9374
:103A3000EC01809113018823B1F18091AD0487FFDF
:103A400032C060E282E08093E9008FEF9091E8005D
:103A5000815095FD06C095ED9A95F1F70000811112
:103A6000F5CF8091E80085FF1BC08091130170E0C5
:103A700050E040E0811104C050E040E068E070E0B8
:103A8000CE010E94E11E8091E8008E778093E800CD
:103A900080E2FE01A1E7B2E001900D928A95E1F784
:103AA000DF91CF91089568E081E0CDCF8091B2049D
:103AB000811109C00E9471200E94CE208091E200F5
:103AC00084608093E20008951092B20408950895EE
:103AD00008950C94211C42E061EC81E00E94ED1FEE
:103AE00042E261EC82E00C94ED1F8091B5048330DA
:103AF00009F45FC030F48130C1F1823009F49BC019
:103B000008958A3009F487C08B3009F46DC089307C
:103B100009F04EC08091B404813209F049C080910F
:103B2000B8049091B904029708F042C08091E8006F
:103B3000877F8093E8008091E80082FF35C09091F4
:103B4000F3008091F200029729F48091F1008B7FBD
:103B5000813021F48091F100809391028091E800FE
:103B60008B778093E8000C9421208091B404813AF3
:103B7000F9F48091E800877F8093E8008091B80491
:103B80009091B904892B61F460E281E792E070E0E2
:103B90000E94301F8091E8008B778093E8000895A1
:103BA00060E090E080E0F3CF8091B3048111C3CF57
:103BB00008958091B404813AD9F78091B804909126
:103BC000B904892BA9F78091E800877F8093E800EA
:103BD0008091E80080FFFCCF809113018093F10079
:103BE0008091E8008E77BDCF8091B404813201F7D7
:103BF0008091B8049091B904892BD1F68091E800A6
:103C0000877F8093E8000E9421208091B6048093F2
:103C100013010C94F6138091B404813249F680911B
:103C2000E800877F8093E8000E9421208091B704FC
:103C30008093920208958091B404813A09F0B8CF3C
:103C40008091E800877F8093E8008091E80080FF02
:103C5000FCCF80919202C2CF84B7877F84BF0FB61A
:103C6000F894A8958091600088618093600010921C
:103C700060000FBE80E890E00FB6F894809361007A
:103C8000909361000FBE0E94A10F0E9471200E94BC
:103C9000CE208091E20084608093E20078940E94BC
:103CA00057230E94AB0F89E091E00E943C0F809166
:103CB000B304853019F00E94B80FF9CF0E94D81BC9
:103CC0008091B104882399F30E94091C882379F319
:103CD0000E94CB1EECCF0C946D1E292F332723306E
:103CE000310519F168F42130310509F44AC0223058
:103CF000310509F44BC090E080E030E020E028C0BE
:103D00002132310579F122323105A9F780E490E0C2
:103D100025EC38E061157105D9F08DE690E028E5D5
:103D200038E061307105A1F0E6CF99278130910527
:103D300099F0009741F08230910589F00397D9F608
:103D4000E3EDF7E002C0E7E0F8E0849190E09F0146
:103D5000FA01318320830895EFEEF7E0F6CFE9ED25
:103D6000F7E0F3CF89E090E02DE138E061157105CF
:103D700079F389E090E026E338E06130710541F3A2
:103D8000BACF82E190E026E438E0E2CF8BE390E026
:103D90002BE038E0DDCF80E189BD82E189BD09B447
:103DA00000FEFDCF8091D8008F7D8093D800809158
:103DB000E00082608093E0008091E00081FDFCCF14
:103DC0000895AF92BF92CF92DF92FF920F931F930D
:103DD000CF93DF936C01EB018A010E944020F82E03
:103DE000811123C00115110539F0F80180819181FD
:103DF000C81BD90BC80ED91EB12CA12C2097A9F035
:103E00008091E80085FD22C08091E8008E77809344
:103E1000E80001151105A1F0F80180819181A80E3B
:103E2000B91EB182A08285E0F82E8F2DDF91CF914F
:103E30001F910F91FF90DF90CF90BF90AF900895AA
:103E40000E9440208823D1F2F82EEFCFF601819115
:103E50006F018093F1002197FFEFAF1ABF0ACECF19
:103E6000FC018091BA049091BB0486179707A0F0DB
:103E70006115710529F49091E8009E779093E80010
:103E800090E06115710551F4911108C08091E8002E
:103E900082FF34C080E00895BC01F2CF8091B3046A
:103EA0008823C1F18530C1F18091E80083FD30C0E5
:103EB0008091E80082FDEACF8091E80080FFE1CFA9
:103EC0008091F3002091F200382F6115710519F0EF
:103ED0002830310558F091E02830310509F090E0A4
:103EE0002091E8002E772093E800CBCF819180933A
:103EF000F100615071092F5F3F4FE7CF8091B3040C
:103F0000882341F0853041F08091E80083FFBECFE7
:103F100081E0089582E0089583E00895FC01809196
:103F2000BA049091BB0486179707A0F0611571053C
:103F300029F48091E8008E778093E80090E0611585
:103F4000710551F4911108C08091E80082FF35C0DD
:103F500080E00895BC01F2CF8091B3048823C9F1B9
:103F60008530C9F18091E80083FD31C08091E8007F
:103F700082FDEACF8091E80080FFE1CF8091F300DD
:103F80002091F200382F6115710519F028303105A4
:103F900058F091E02830310509F090E08091E80078
:103FA0008E778093E800CBCF84918093F100319697
:103FB000615071092F5F3F4FE6CF8091B304882392
:103FC00041F0853041F08091E80083FFBDCF81E072
:103FD000089582E0089583E00895982F973028F09F
:103FE0008F708093E90081E008959093E900242F79
:103FF000762F50E0981731F07091EC002091ED0091
:104000005091F00021FD02C09F5FE8CF3091EB009E
:104010003E7F3093EB003091ED003D7F3093ED001B
:104020003091EB0031603093EB007093EC00209303
:10403000ED005093F0002091EE0027FDE5CF80E0E9
:1040400008958091B40487FF13C08091E80082FF37
:1040500006C08091E8008B778093E80004C08091CF
:10406000B3048111F2CF08958091B3048823D9F36A
:104070008091E80080FFF8CF8091E8008E77ECCF48
:104080002091E4003091E50095E6A9012091EC0033
:10409000822F817020FF06C08091E80080FF06C05B
:1040A00080E008952091E80022FD1AC08091B304B9
:1040B000882389F0853089F08091EB0085FD0FC061
:1040C0002091E4003091E50042175307F9F2915036
:1040D000E1F684E0089582E0089583E0089581E0A8
:1040E00008950E94DF200E94E720E0EEF0E080814A
:1040F00081608083E8EDF0E080818F77808319BC58
:10410000A7EDB0E08C918E7F8C9380818F7E808331
:104110001092B20408950F931F93CF93DF930E94E0
:10412000DF200E94E720C8EDD0E088818F77888368
:1041300088818068888388818F7D888319BC1092EC
:10414000B3041092AF041092B1041092B00400EEC8
:1041500010E0F80180818B7F808388818160888373
:1041600042E060E080E00E94ED1FE1EEF0E080813F
:104170008E7F8083E2EEF0E08081816080838081A9
:1041800088608083F80180818E7F80838881806150
:104190008883DF91CF911F910F910895E8EDF0E0B2
:1041A00080818F7E8083E7EDF0E080818160808375
:1041B00084E082BF81E08093B2040C948B20E8ED10
:1041C000F0E080818E7F80831092E200089510924B
:1041D000DA001092E10008951F920F920FB60F922D
:1041E00011242F933F934F935F936F937F938F93FC
:1041F0009F93AF93BF93EF93FF938091E10082FF72
:104200000BC08091E20082FF07C08091E1008B7FAC
:104210008093E1000E9456238091DA0080FF19C04C
:104220008091D80080FF15C08091DA008E7F809346
:10423000DA008091D90080FF96C080E189BD82E1DB
:1042400089BD09B400FEFDCF81E08093B3040E94D4
:10425000561D8091E10080FF19C08091E20080FF2F
:1042600015C08091E2008E7F8093E2008091E20091
:1042700080618093E2008091D80080628093D800B2
:1042800019BC85E08093B3040E94681D8091E10011
:1042900084FF2BC08091E20084FF27C080E189BDAC
:1042A00082E189BD89B5982F917080FFFBCF809105
:1042B000D8008F7D8093D8008091E1008F7E80931D
:1042C000E1008091E2008F7E8093E2008091E20025
:1042D00081608093E2008091AF04882309F449C093
:1042E00084E08093B3040E94691D8091E10083FF04
:1042F00029C08091E20083FF25C08091E100877F83
:104300008093E10082E08093B3041092AF04809127
:10431000E1008E7F8093E1008091E2008E7F8093A8
:10432000E2008091E20080618093E20042E060E080
:1043300080E00E94ED1F8091F00088608093F00083
:104340000E94671DFF91EF91BF91AF919F918F9157
:104350007F916F915F914F913F912F910F900FBE81
:104360000F901F90189519BC1092B3040E94641D01
:1043700070CF8091E30087FD93E09093B304B3CFB7
:104380001F920F920FB60F9211242F933F934F93CA
:104390005F936F937F938F939F93AF93BF93CF93CD
:1043A000DF93EF93FF93D091E900DF708091EC00F1
:1043B000C82FC17080FDC0E81092E9008091F00024
:1043C000877F8093F00078940E9404221092E90085
:1043D0008091F00088608093F000CD2BCF70C09367
:1043E000E900FF91EF91DF91CF91BF91AF919F9144
:1043F0008F917F916F915F914F913F912F910F908E
:104400000FBE0F901F9018951F93CF93DF93CDB7DA
:10441000DEB7AA970FB6F894DEBF0FBECDBF84EB10
:1044200094E02091F100FC012193CF01F4E08C3B5A
:104430009F07B9F70E94751D8091E80083FF1EC198
:104440008091B4049091B5049A3008F017C1E92F17
:10445000F0E0E05FFB4D0C949223803899F08238B5
:1044600009F00CC18091B8048F70873008F006C144
:104470008093E9008091EB0085FB882780F91092FA
:10448000E90006C08091B0049091B104911182605E
:104490009091E800977F9093E8008093F10010924C
:1044A000F1008091E8008E77E5C0882309F4D3C03D
:1044B000823009F0E3C08091B6048111D6C08091AA
:1044C000B8048F702FEF280F263008F0D7C08093E4
:1044D000E9002091EB0020FFC8C0933031F48091B7
:1044E000EB0080628093EB00C0C09091EB00906184
:1044F0009093EB0021E030E001C0220F8A95EAF7AB
:104500002093EA001092EA008091EB008860EACFE5
:104510008111B4C01091B6041F778091E3008078B8
:10452000812B8093E3008091E800877F8093E800EF
:104530000E9421208091E80080FFFCCF8091E30061
:1045400080688093E30082E0111183E08093B304DC
:1045500095C08058823008F091C08091B604909147
:10456000B7048C3D23E09207A1F583E08A838AE2B9
:1045700089834FB7F894DE01139620E03EE051E2C4
:10458000E32FF0E050935700E49120FF03C0E29541
:10459000EF703F5FEF708E2F90E0EA30C0F0C7966B
:1045A0008D939D932F5F243159F74FBF8091E80081
:1045B000877F8093E8006AE270E0CE0101960E9456
:1045C000301F8091E8008B778093E80057C0C09639
:1045D000E7CF6091B8047091B904AE014F5F5F4FAF
:1045E0000E946B1EBC01892B09F448C09091E80021
:1045F000977F9093E80089819A810E948E1FE1CF76
:104600008038E1F58091E800877F8093E800809111
:10461000AF048093F10045CF811130C09091B60472
:10462000923060F58091E800877F8093E800909356
:10463000AF040E9421208091AF04882311F084E010
:1046400005C08091E30087FDFACF81E08093B30439
:104650000E946B1D13C08091B604813079F481E013
:10466000933009F080E08093B1041092E9008091CA
:10467000E800877F8093E8000E9421208091E80075
:1046800083FF0AC08091E800877F8093E8008091D3
:10469000EB0080628093EB00AA960FB6F894DEBF21
:1046A0000FBECDBFDF91CF911F9108950895CF9395
:1046B0008091B3048823A1F0C091E900CF7090915C
:1046C000EC00892F817090FD80E8C82B1092E900E2
:1046D0008091E80083FD0E940422CF70C093E9001E
:1046E000CF910895991B79E004C0991F961708F09F
:1046F000961B881F7A95C9F780950895AA1BBB1B46
:1047000051E107C0AA1FBB1FA617B70710F0A61BD1
:10471000B70B881F991F5A95A9F780959095BC01F2
:10472000CD010895EE0FFF1F0590F491E02D09943F
:10473000FB01DC0102C005900D9241505040D8F7BA
:104740000895FB01DC0104C08D910190801921F4D2
:1047500041505040C8F7881B990B0895F999FECF36
:1047600092BD81BDF89A992780B50895A8E1B0E07F
:1047700042E050E00C94E223262FF999FECF92BD3F
:1047800081BDF89A019700B4021639F01FBA20BD16
:104790000FB6F894FA9AF99A0FBE08950396272F48
:1047A0000E94BD230E94BC23252F0E94BD23242FDD
:1047B0000C94BD230196272F0E94BD230C94BC238B
:1047C000DC01CB01FC01F999FECF06C0F2BDE1BDD1
:1047D000F89A319600B40D9241505040B8F70895C0
:1047E000F894FFCFCE11CE11261226127812FB11AB
:1047F000FB11FB11941220132F132F138B13FB119A
:10480000FB119413051405140E140E1410140E1439
:104810000E140E140514051415140E140E1415148C
:104820002D2255223E2355223E238822A9223E23B3
:0448300000230C2332
:104834000021007F2200034C02D71C161DDA1C1233
:104844001D0E1D01E200E900EA00B500B600B70044
:10485400CD008301CC008A0192019401210223023C
:1048640024022502260227022A02B300B4006F00A4
:10487400700081828367663635349737F0F1F4F53A
:10488400F6F73132339300FF0100010000FFFF000F
:1048940000010001FF000008101818100800E200D1
:1048A400E900EA00B500B600B700CD008301CC00F2
:1048B4008A01920194012102230224022502260284
:1048C40027022A02B300B4006F00700081828300C3
:00000001FF
